:020000040800F2
:10000000F00C0020012500087503000877030008A4
:100010007B0300087F030008830300080000000042
:10002000000000000000000000000000870300083E
:1000300089030008000000008B0300088D030008FE
:100040001B2500081B2500081B250008BD1C0008F7
:100050001B2500081B2500081B2500081B25000880
:100060001B2500081B2500081B2500081B25000870
:100070001B2500081B2500081B2500081B25000860
:100080001B2500081B2500081B2500081B25000850
:100090001B2500081B2500081B2500081723000846
:1000A0001B2500081B2500081B2500081B25000830
:1000B00005060008D10600081B2500081B250008BE
:1000C0001B2500081B2500081B2500081B25000810
:1000D0001B250008D52400081B2500081B25000847
:1000E0001B2500081B2500081B250008DFF80CD085
:1000F00004F056FE0048004725010008F00C0020DF
:1001000010B50A220021084601F049F80B2200210F
:10011000102001F044F8022375A20021202000F0F5
:10012000C4FF10BD86B0754B0FCBCDE90423CDE9DC
:10013000020100BF00BF00240025012070490870A3
:1001400002F002F94FF4806002F0ECF900F010FACE
:1001500000F004FF322002F034F900F08BFF11E0D0
:10016000022368A20021084600F09FFFC82002F089
:1001700028F9022367A20021084600F096FFC82054
:1001800002F01FF901F096FB0028E9D1642002F08B
:1001900018F900BF01F0A9FB40F252318842F9D0B2
:1001A00041F2883002F00DF900F064FF00F0B2FB7C
:1001B0004FF4165002F041F941F61F41C72000F0FC
:1001C000F3F901F047FE02F071F800F053FFFFF77A
:1001D00097FF8CE053480078012813D10020514943
:1001E000087001F082FB054601221146900703F0DA
:1001F000FEFD012211464C4803F0F9FD012188075C
:1002000003F0DAFD49480078012804D1002047496D
:10021000087001F02BF8142002F0D3F801F02BFE47
:100220004FF48051424802F0DEFAA8B900BF4FF403
:1002300080513F4802F0D7FA0028F8D000F01AFFAA
:100240003C48007818B901203A49087004E00020C1
:1002500038490870FFF754FF37480078012814D157
:10026000002035490870284604F02EFB81463349AA
:1002700004F07AFA064604F04FFB2246CDE900016D
:100280002F4801882FA004F0E9FD2A48007810B11A
:1002900001282BD127E01A48007801280BD12848E3
:1002A00002882FA102A804F0E9FD022302AA194640
:1002B000202000F0FAFE284604F006FB81461F4984
:1002C00004F052FA064604F027FB07463A460B466E
:1002D00025A102A804F0D2FD022302AA04212020B5
:1002E00000F0E3FE02E001F0F6FC00BF00BF71E7A2
:1002F0003A2D2D2D722F6D696E0000008057000879
:100300007C08002044533138423230204572726FED
:1003100072000000202020202020202020202020EB
:1003200020000000240000200004004028080020D5
:10033000000C0140080000202500002000002041A2
:100340007A080020537465703A25356420483A25B0
:10035000336420543A25342E3166200D0A00000003
:100360003A252D35642000003A25342E31662020B0
:1003700020200000704700BFFEE700BFFEE700BF7F
:10038000FEE700BFFEE77047704770477047000008
:100390000CB50020019000906C48006840F480305B
:1003A0006A49086000BF6948006800F400300090A6
:1003B0000198401C0190009818B90198B0F5A06F01
:1003C000F1D16248006800F4003010B101200090C3
:1003D00001E0002000900098012843D15C480068AB
:1003E00040F010005A4908600846006820F00300F9
:1003F00008600846006840F0020008605348406802
:10040000524948600846406848600846406840F4E1
:10041000806048600846406820F47C1048600846C8
:10042000406840F4E81048600846006840F080707A
:10043000086000BF4548006800F000700028F9D04F
:100440004248406820F00300404948600846406840
:1004500040F00200486000BF3C48406800F00C00DB
:100460000828F9D10CBD10B5FFF792FF10BD10B5EB
:100470003648006840F0010034490860084640688A
:10048000344908403149486008460068324908400C
:100490002E4908600846006820F48020086008465D
:1004A000406820F4FE0048604FF41F008860FFF7AA
:1004B000DAFF4FF000602949086010BD10B5002137
:1004C00000200022214B5B6803F00C0121B10429BC
:1004D00006D0082928D107E0214B224C236027E0D1
:1004E0001F4B204C236023E0184B5B6803F4701013
:1004F000164B5B6803F48032022303EB904022B971
:10050000194B4343174C23600DE0104B5B6803F419
:10051000003323B1144B4343124C236003E0104BD0
:100520004343104C236003E00D4B0E4C236000BF8F
:1005300000BF064B5B68C3F303130C4CE15C094B33
:100540001B68CB40074C236010BD00000010024028
:10055000002002400000FFF8FFFFF6FE08ED00E07B
:1005600000127A001000002000093D001400002055
:1005700008B50121102002F05FFB4FF40050ADF8E8
:10058000000010208DF8030003208DF8020069465A
:10059000044802F095F84FF40051024802F03DF98A
:1005A00008BD0000001001407FB505460C46012142
:1005B000084602F04EFBADF80850ADF804400020AC
:1005C000ADF80A00ADF8060001A94FF0804003F035
:1005D00097F801221146900703F009FC1C208DF8C2
:1005E000000001208DF8010003208DF80200012099
:1005F0008DF80300684601F09AFF0121880703F097
:10060000DBFB7FBD10B50121880703F09EFE10B310
:100610000121880703F0AAFE0120A8490870A84814
:100620000068401CA649086008460068642804D396
:10063000002008600120A3490870A34801680068F1
:10064000401CA14A10600A2905D300201146086009
:1006500001209E49087010BD7FB505460C4601215A
:10066000022002F0F6FAADF80850ADF80440002080
:10067000ADF80A00ADF8060001A9954803F040F86E
:100680002021934803F011FE0121914803F05AFE06
:10069000012211468E4803F0AAFB01218C4803F089
:1006A0008BFB1D208DF8000000208DF801008DF8D7
:1006B000020001208DF80300684601F038FF002198
:1006C000022002F0C6FA0121022002F0C2FA7FBD28
:1006D00070B5002401217E4803F037FE002870D059
:1006E0007C4802F037FE0646C01706EB907080107B
:1006F0007949086079480068801C78490860084694
:10070000006877490968401A7649086072480068AD
:1007100075490968884214DA74480068052190FB1D
:10072000F1F000EB40006F490968884209DA6A4835
:1007300000686F490968884203DA674800686C49B5
:1007400008606548006868490968884209DD6248B0
:10075000006868490968884203DD5F4800686549A8
:10076000086060480068FA2863DD5B4800685E49FD
:10077000096888425DDD60480078002859D15B48EF
:100780000068052190FBF1F000EB40005549096835
:1007900088424EDA01205849087050480068504994
:1007A0000968401A514908604C4800684C49086083
:1007B0005248007878B1002050490870002400BFEA
:1007C00007E075E0494800684D4941F82400601C85
:1007D000C4B2092CF6DD4B48007830B100204949FD
:1007E000087001204549087070BD002500240BE009
:1007F0004349601C51F8200041F82400084650F895
:1008000024000544601CC4B2082CF1DD37480068A0
:100810003B4948620846406A05440A20B5FBF0F5AA
:100820004EF66020B0FBF5F03749086001203749EB
:100830000870294800682C49096888421EDA2E4849
:10084000007801281AD100202B4908702948006837
:1008500027490968401A2E490860086800EBD071E2
:10086000234A126802EB61011F4A116010460068BA
:1008700020490860104600681D4908601948006852
:1008800040F6C411884213DD4FF400701649086029
:100890001849086016490860104800681049086047
:1008A0000120184908700020144908701749087081
:1008B0000121074803F05AFD00BF95E728080020F2
:1008C00058000020250000205C00002024000020AB
:1008D00000040040002401402C00002038000020CB
:1008E0003C00002050000020480000203000002084
:1008F000440000204000002034000020550000206B
:10090000BC080020540000202800002035000020F2
:100910004C00002000B587B001214FF4017002F0B7
:100920008BF94FF4004002F0EBF80120ADF8040021
:1009300000208DF8070001A9334801F0C1FE3348BB
:1009400002F0E2FB002002908DF80C008DF80D0003
:100950004FF4002004900020059001208DF818002D
:1009600002A92A4802F0F7FB0121284802F0E7FC1F
:10097000072301220021254802F085FC012123489C
:1009800002F015FC214802F034FC00BF1F4802F0C1
:1009900035FC0028FAD11D4802F03AFC00BF1B4884
:1009A00002F03BFC0028FAD107B000BD10B50446A8
:1009B000072301222146154802F065FC0121134856
:1009C00002F035FC00BF0221104802F0A1FD002812
:1009D000F9D00E4802F0BEFC10BD2DE9F0410746EB
:1009E0000C460025002608E03846FFF7DFFF0544E7
:1009F000052001F0E6FC701CC6B2A642F4DBB5FB94
:100A0000F4F080B2BDE8F08100080140002401400C
:100A100008B50121082002F00FF94FF40060ADF88D
:100A2000000048208DF8030003208DF8020069467D
:100A3000B54801F045FE08BD08B50121082002F0C7
:100A4000FBF84FF40060ADF8000010208DF80300B3
:100A500003208DF802006946AB4801F031FE08BD65
:100A600008B50121082002F0E7F84FF44060ADF826
:100A7000000010208DF8030003208DF80200694665
:100A8000A14801F01DFE4FF440619F4801F0C5FEF2
:100A900008BD10B5FFF7D0FF01209C4908609C49B4
:100AA000C1F8A801052001F068FC00209749086002
:100AB000052001F062FC00209549C1F8A80110BD95
:100AC00010B5FFF7B9FF0020904908600120904958
:100AD000C1F8A801052001F050FC01208B490860F5
:100AE000052001F04AFC10BD10B50446FFF7A4FF35
:100AF0008648046001208649C1F8A801052001F05C
:100B00003CFC00208149091F0860052001F035FCEC
:100B100010BD10B5FFF77CFF01207C49091F08605C
:100B2000022001F02AFC01207949C1F8A801C10284
:100B3000754801F058FE012802D17649087002E09C
:100B400000207449087000207049091F08600520C2
:100B500001F013FCFFF770FF6E48007810BD70B510
:100B60000446FFF769FF00251EE0052001F005FCA3
:100B700004F0800018B101206449086002E0002000
:100B800062490860052001F0F8FB01205F49091F58
:100B90000860052001F0F1FB00205D49C1F8A801C3
:100BA0006006040E681CC5B2082DDEDBFFF7B1FF3E
:100BB00070BD70B50024FFF72BFF002520E0600614
:100BC000040E052001F0D9FB01205049091F0860DF
:100BD000C1024D4801F007FE012801D1012600E0C5
:100BE00000260EB1601CC4B2052001F0C6FB002037
:100BF0004649091F0860052001F0BFFB681CC5B20B
:100C0000082DDCDB204670BD70B505460C46FFF7AD
:100C100040FFA620FFF7A3FF2846FFF7A0FF2046CE
:100C2000FFF79DFFFFF74CFF70BD70B50446FFF75F
:100C300030FFA620FFF793FF2046FFF790FFFFF756
:100C400028FFA720FFF78BFFFFF7B3FF0546012022
:100C5000FFF74AFFFFF734FF284670BD10B5FFF7D6
:100C6000FFFE0020FFF7E1FFE52825D100212E201F
:100C7000FFF7CAFF2B213120FFF7C6FF09212C20E7
:100C8000FFF7C2FF08212D20FFF7BEFF00212F2014
:100C9000FFF7BAFF80212E20FFF7B6FF00211E20AC
:100CA000FFF7B2FF00211F20FFF7AEFF0021202039
:100CB000FFF7AAFF002010BD0120FCE770B5054634
:100CC000FFF7E7FEA620FFF74AFF3220FFF747FFB6
:100CD000FFF7DFFEA720FFF742FF00240EE0FFF73B
:100CE00068FF28706D1C052C03D10120FFF7FCFE66
:100CF00002E00020FFF7F8FE601CC4B2062CEEDB19
:100D0000FFF7DEFE70BD0000000C0140AC81214207
:100D1000008021426600002008B50121082001F072
:100D20008BFFC020ADF8000010208DF803000320D9
:100D30008DF802006946F84801F0C2FCC021F6486F
:100D400001F06BFD08BDF448006820F07040F249E6
:100D500008600846006840F0405008600120EF49F4
:100D60000860EF49C1F898010020EC490860EC499F
:100D7000C1F898017047E848006820F07040E649E3
:100D800008600846006840F0405008600020E349D1
:100D9000091F0860E249C1F89C010120DF49091FD1
:100DA0000860DF49C1F89C01704700B50022DA48AD
:100DB000006820F07040D84908600846006840F09C
:100DC000004008600120D5490860D549C1F8980164
:100DD00007E0501CC2B2FA2A03DDFFF7CCFF012066
:100DE00000BDCE48803800680028F2D1CB49091FE9
:100DF000086000BFF4E70020C849091F0860C64822
:100E0000006820F07040C44908600846006840F05F
:100E1000405008600020C249C1F89C010120BF4930
:100E2000091F08600020BE49C1F8980170470020E2
:100E3000BA49091F0860B848006820F07040B649F8
:100E400008600846006840F0405008600120B4493E
:100E5000C1F89C01B149091F08600020B049C1F8E0
:100E600098017047AC4A126822F07042AA4B1A608F
:100E70001A46126842F040521A600022A74B1B1F0C
:100E80001A60002114E0C2091AB10122A34B1A60B2
:100E900002E00022A14B1A604206100E01229F4B75
:100EA0001B1F1A6000229E4BC3F898214A1CD1B226
:100EB0000829E8DB704770B50546002496480068AD
:100EC00020F07040944908600846006840F00040F7
:100ED000086000260CE0022001F04FFA6006040EC4
:100EE0008E488038006808B1601CC4B2701CC6B25D
:100EF000082EF0DB15B9FFF79AFF01E0FFF77BFF43
:100F0000204670BD10B50446FFF71DFF7820FFF79F
:100F1000A9FFFFF74AFF0020FFF7A4FFFFF745FFF7
:100F20002046FFF79FFFFFF740FFFFF724FF10BDAC
:100F300010B50446FFF707FF7820FFF793FFFFF790
:100F400034FF4020FFF78EFFFFF72FFF2046FFF70B
:100F500089FFFFF72AFFFFF70EFF10BD10B5FFF75F
:100F6000DBFE642001F02DFAAE20FFF7CBFF20203E
:100F7000FFF7C8FF1020FFF7C5FFB020FFF7C2FF43
:100F8000C820FFF7BFFF0020FFF7BCFF1020FFF7CE
:100F9000B9FF4020FFF7B6FF8120FFF7B3FFFF2026
:100FA000FFF7B0FFA120FFF7ADFFA620FFF7AAFFD4
:100FB000A820FFF7A7FF3F20FFF7A4FFA420FFF71B
:100FC000A1FFD320FFF79EFF0020FFF79BFFD52056
:100FD000FFF798FFF020FFF795FFD920FFF792FF6A
:100FE0002220FFF78FFFDA20FFF78CFF1220FFF798
:100FF00089FFDB20FFF786FF2020FFF783FF8D208E
:10100000FFF780FF1420FFF77DFFAF20FFF77AFF87
:1010100010BD30B504460D4605F1B001C8B2FFF76A
:1010200071FF102141EA1410FFF76CFF04F00F016B
:1010300041F00100FFF766FF30BD70B506460024A1
:1010400015E004F1B001C8B2FFF75CFF0020FFF724
:1010500059FF1020FFF756FF002504E03046FFF748
:1010600067FF681CC5B2802DF8DB601CC4B2082C79
:10107000E7DB70BD00B50020FFF7DFFF00BD00B566
:101080008D20FFF73FFF1420FFF73CFFAF20FFF755
:1010900039FF00BD00B58D20FFF734FF1020FFF7AA
:1010A00031FFAE20FFF72EFF00BD2DE9F0470646C9
:1010B000894617469A464FF0000800240025BAF1E9
:1010C000010F03D0BAF1020F66D12DE020E0785D68
:1010D000203800F0FF087E2E04DD002609F1010013
:1010E00000F0FF0949463046FFF793FF002409E06E
:1010F00008EB48010B4A02EB4101085DFFF718FFBE
:10110000601CC4B2062CF3DBB01DC6B2681CC5B2AD
:10111000785D0028DBD13FE0000C01409C8121423A
:10112000008021429057000832E0785D203800F0BE
:10113000FF08782E04DD002609F1010000F0FF0908
:1011400049463046FFF765FF002407E004EB08112D
:10115000444A505CFFF7ECFE601CC4B2082CF5DB7F
:1011600009F10100C1B23046FFF753FF002408E047
:1011700004EB081108313B4A505CFFF7D9FE601CB4
:10118000C4B2082CF4DB06F10800C6B2681CC5B274
:10119000785D0028C9D100BF00BFBDE8F0872DE908
:1011A000F04180460E46174600247D0131464046F8
:1011B000FFF72FFF00BF06E02B49485DFFF7B8FEA1
:1011C0006D1C601CC4B2102CF6DB701CC1B2404612
:1011D000FFF71FFF002406E02349485DFFF7A8FE44
:1011E0006D1C601CC4B2102CF6DBBDE8F0812DE94B
:1011F000F04F06460F4690461C46DDF824A04FF0FF
:10120000000BE11704EB5171C910A4EBC10131B916
:101210002046E11704EB5171C1F3C70506E02046F3
:10122000E11704EB5171C910491CCDB23D4614E0E1
:1012300029463046FFF7EDFEB1460AE059460BF16C
:10124000010B1AF80100FFF773FE09F1010000F02D
:10125000FF09C145F2DB681CC5B2A542E8DBBDE869
:10126000F08F0000B859000867000020F0B587B083
:10127000FE48FFF723FDFD480078FC49497800EB64
:10128000012005B2F9488078F849C97800EB0120BF
:1012900006B2F6480079F549497900EB012007B21A
:1012A00000245FE0F24830F81400F24921F81400FD
:1012B000F14830F81400EE4921F81400EF4830F8F6
:1012C0001400ED4921F81400E84A12F814206100D6
:1012D000491CE64B595C02EB012108B2002801DBF6
:1012E000014600E04142E54A22F8141033462A46FE
:1012F000E3A102A8009703F0C1FDE04931F8141002
:10130000DD4A32F814201144D94A32F8142011442D
:10131000D84A32F814208818C11700EB9171C1F334
:101320008F01DB4A22F81410104630F81400D94916
:1013300031F81410884205DD104630F81400D54904
:1013400021F81400D24830F81400D34931F81410B1
:10135000884205DACE4830F81400CF4921F814004D
:10136000601CC4B2022C9DDDCC480078401CCB49E7
:10137000087008460078322850DB002008700024EE
:101380004AE0C44830F81400C34931F81410401A38
:10139000C34921F81400BF4931F81410BE4A32F88D
:1013A0001420881800EBD071C1F34F01BD4A22F818
:1013B00014100020B74921F814004FF48060B6499A
:1013C00021F814000020B8490855B54830F8140039
:1013D000FA2809DBB24830F81400322190FBF1F012
:1013E000B24921F8140015E0AD4830F81400642823
:1013F00009DBAB4830F81400FA2804DA0320AB49C3
:1014000021F8140006E00220A84921F81400012068
:10141000A5490855601CC4B2022CB2DD00243CE092
:10142000A34830F81400A34921F81400984830F874
:1014300014009F4931F81410884212DB944830F8A8
:1014400014009B4931F81410401A984931F81410CF
:10145000884220DB8E4830F81400954921F81400AA
:1014600019E08B4830F81400914931F81410884283
:1014700011DA8F4830F81400854931F81410401AF9
:101480008A4931F81410884205DB814830F814008D
:10149000874921F81400601CC4B2022CC0DD8048CA
:1014A00000887F49498888424EDB7D4800887C4916
:1014B0008988884248DB7F4800887A4909888842C1
:1014C00041DB7B4800887749098888423BDA7648C7
:1014D0000078002837D1784800880A2827DD764828
:1014E0000088642823DA75480088401C7349088006
:1014F0007348007873490870734800787049087021
:1015000072480078704908700120704908706D4871
:101510000078A8B16A48007890B16B48007878B13B
:101520000846007860B101206949087008E0002091
:10153000644908706249087063490870634908701B
:1015400000205D490880E3E05548408854490988F7
:1015500088424EDB5248408851498988884248DB9E
:10156000544840884F4949888842ECDB50484088BD
:101570004C4949888842E6DA4B4840780028E2D155
:101580004D4800880A2827DD4B480088642823DA64
:101590004A480088401C4949088049480078494920
:1015A000087049480078464908704848007846491C
:1015B000087001204549087042480078A8B14048A9
:1015C000007890B14048007878B10846007860B162
:1015D00001203F49087008E000203A490870384966
:1015E000087039490870394908700020324908806C
:1015F0008EE02B4880882A49498888426ADB28483F
:1016000080882749098888427FDB2A4880882549C5
:10161000898888427CDB26488088224989888842DC
:1016200076DA21488078F8B9234800880A285FDDF7
:101630002148008864285BDA20480088401C1F4944
:1016400008801F4800781F4908701F4800781C490F
:1016500008701E4800781C49087001201B4908705A
:101660001848007808B136E052E04AE060000020F7
:10167000380800203E080020320800202C080020F6
:1016800025346420253464202025356420000000A2
:10169000440800204A080020500800209808002034
:1016A0005C0800205608002029080020620800205D
:1016B0006E08002068080020740800207A080020C6
:1016C000780800207908002077080020760800209C
:1016D0007C08002019E00F48007890B10E4800788F
:1016E00078B10846007860B101200C49087008E024
:1016F00000200B490870074908700749087009491C
:10170000087000200849088002E0002003490870A2
:1017100007B0F0BD78080020770800207C08002082
:1017200079080020760800207408002008B50121FF
:10173000042001F081FA4020ADF8000048208DF827
:10174000030003208DF8020069468A4800F0B8FFC4
:1017500008BD08B50121042001F06EFA4020ADF863
:10176000000010208DF8030003208DF80200694668
:10177000804800F0A5FF08BD10B5FFF7EAFF002084
:101780007D49086040F2EE2000F0F7FD01207B4922
:10179000C1F898010F2000F0F0FD10BD10B5002435
:1017A000FFF7C4FF04E0601CC4B2012000F0E5FDB7
:1017B00071488038006808B1C82CF4DBC82C01DB04
:1017C000012010BD002404E0601CC4B2012000F020
:1017D000D4FD69488038006808B9F02CF4DBF02C9F
:1017E00001DB0120EDE70020EBE710B5FFF7B1FFCB
:1017F000002061490860022000F0BFFD01205F4920
:10180000C1F89801FFF792FF0C2000F0B6FD5A488E
:101810008038006808B1012400E00024322000F084
:10182000ACFD204610BD70B50026012508E0FFF78D
:10183000DCFF0446E00140EA6600C6B2681CC5B29F
:10184000082DF4DD304670BD70B50446FFF781FF0A
:10185000012520E004F0010664106EB10020464925
:101860000860022000F089FD01204449C1F8980178
:101870003C2000F082FD0CE000203F4908603C2045
:1018800000F07BFD01203D49C1F89801022000F0E5
:1018900074FD681CC5B2082DDCDD70BD10B5FFF706
:1018A0006BFFFFF77BFFCC20FFF7CEFF4420FFF755
:1018B000CBFF10BD08B50121042001F0BDF9402087
:1018C000ADF8000010208DF8030003208DF8020011
:1018D0006946284800F0F4FE4021264800F09DFFAC
:1018E000FFF74AFFFFF75AFF08BD2DE9F84FFFF752
:1018F000D5FFFFF741FFFFF751FFCC20FFF7A4FF13
:10190000BE20FFF7A1FFFFF78EFF8346FFF78BFF97
:101910000446072C08DDE043C4B26FEA0B0000F078
:10192000FF0B4FF0000A01E04FF0010AA1464FEA19
:1019300009200FFA80F909EB0B000FFA80F94846ED
:1019400002F0C2FF009002F0E7FF074600220C4BB6
:1019500002F048FF054602F0C0FF0FFA80F9BAF125
:10196000000F02D04846BDE8F88FC9F1000000B270
:10197000F9E70000000801409801214200002142DF
:101980000000E43F08B503208DF8000001208DF829
:10199000010000208DF8020001208DF80300684648
:1019A00000F0C5FD08BDF0B503460C4615466420A1
:1019B00093FBF0F0C6B2642093FBF0F700FB173006
:1019C000C1B2132E02DD01F16400C1B20846CF1787
:1019D00001EB977701EBA707BAB2072092FBF0F76C
:1019E00000FB172082B25719601EDFF828C41CF8CC
:1019F0000000384482B2CF1701EB9777BF10A1EBFC
:101A000087071FB9032C01DA501E82B2072092FB10
:101A1000F0F700FB1720C0B2F0BD0146CA1701EB7A
:101A200092729210A1EB820292B9642091FBF0F2C3
:101A300000FB121050B94FF4C87091FBF0F200FB9C
:101A4000121008B9012070470020FCE70120FAE7D6
:101A50000020F8E770B500260024002502F0AAFC5B
:101A60000646ED48B6FBF0F4EC480088A0423CD0B6
:101A7000EA490C8040F2B27510E02846FFF7CDFF2E
:101A800040B1B4F5B77F02D3A4F5B77404E0681C85
:101A900085B206E0A4F26D14681C85B2B4F5B67F79
:101AA000EBD800BFDE488580002516E0DC49888839
:101AB000FFF7B3FF30B1012D04D11D2C01D31D3C24
:101AC00009E00CE0D748405DA04203D8D548405D0E
:101AD000241A00E003E0681C85B21C2CE6D200BF8B
:101AE000681CCF498871601CC871CB48B6FBF0F107
:101AF00000FB11644FF46160B4FBF0F0C84908705A
:101B00004FF46160B4FBF0F100FB11403C21B0FBED
:101B1000F1F0C34948704FF46160B4FBF0F100FB91
:101B200011403C21B0FBF1F201FB1200BC4988706E
:101B30000B46DA7999799888FFF735FFB84908722A
:101B4000002070BD2DE9F05F06460F46904699468D
:101B5000DDE90AAB002440F2B270864203DB40F6B6
:101B60003300864202DD0120BDE8F09F40F2B275ED
:101B70000AE02846FFF751FF10B1AB48044401E0EA
:101B8000AA480444681C85B2B542F2DB781EC7B28D
:101B9000002510E0A348405D40F2A321484304EB38
:101BA000C0143046FFF739FF18B1012D01D19A4812
:101BB0000444681C85B2BD42ECDBA8F1010040F290
:101BC000A321484304EBC014C9EB4910C0EB092022
:101BD00004EB0014CAEB0A1004EB80045C440121FE
:101BE0004FF0C05001F035F8012002F072FC2046A1
:101BF00002F0E9FB02F01AFC0020B5E71CB5002456
:101C000001214FF0C05001F024F8012002F061FCE6
:101C1000042002F0EEFC45F65A21884240D002F042
:101C2000B3FC012000F075FF04E0601CC4B20A2080
:101C300000F0C7FB412000F0D4FE08B9FA2CF4DB19
:101C4000FA2C01DB01201CBD4FF4807000F07DFFF9
:101C5000012000F080FF02F0E9FB02F0F0FB01211F
:101C6000084602F087FB02F0E1FB02F090FB47F62A
:101C7000FF7002F0B5FB02F0D9FB372021210D23C4
:101C80001C22CDE90010022140F2E370FFF75AFF59
:101C900002F086FB45F65A21042002F09EFC07E084
:101CA00002F0CDFB0121084602F064FB02F0BEFB0E
:101CB000FFF768FEFFF7CEFE0020C4E710B5012055
:101CC00002F0E2FB08B1FFF7C5FE012002F0ECFBD9
:101CD00002F0ACFB10BD00B589B051488078544982
:101CE0000978884270D04E48807851490870122295
:101CF00002210020FFF753FA132202211020FFF7E0
:101D00004EFA102204210020FFF749FA1122042183
:101D10001020FFF744FA4248C07900904048837988
:101D2000828844A105A803F0A9F8022305AA194650
:101D30002020FFF7BAF93A48807800903848437875
:101D4000027840A101A803F099F8022301AA042116
:101D50002020FFF7AAF9012000F033FB3048007A79
:101D6000072853D2DFE800F0040F1A25313C470062
:101D7000142206210020FFF712FA15220621102056
:101D8000FFF70DFA42E0142206210020FFF707FAC0
:101D9000162206211020FFF702FA37E0142206214E
:101DA0000020FFF7FCF9172206211020FFF7F7F9B2
:101DB0002CE0142206210020FFF7F1F91822062159
:101DC0001020FFF7ECF921E021E014220621002089
:101DD000FFF7E5F9192206211020FFF7E0F915E0D9
:101DE000142206210020FFF7DAF91A22062110201A
:101DF000FFF7D5F90AE0142206210020FFF7CFF9FA
:101E00001B2206211020FFF7CAF900BF00BF09B04E
:101E100000BD0000A85F0008805101009A08002062
:101E2000E4080020B45F00080085E2018033E1018E
:101E30009C0800203A25642D253032642D2530324F
:101E4000640000003A253032643A253032643A2585
:101E50003032640008B50121082000F0EDFE4FF497
:101E60007040ADF8000048208DF803006946ED4849
:101E700000F026FC08BD2DE9F04387B00025A946F7
:101E8000E948B0F804908679C479077890F8018021
:101E90004FF40051E34800F0A6FC00287DD100BFBC
:101EA0004FF40051DF4800F09EFC0028F8D0FFF707
:101EB000E1F81C2200213020FFF771F91D220021DA
:101EC0004020FFF76CF9122202210020FFF767F98A
:101ED000132202211020FFF762F9102204210020B2
:101EE000FFF75DF9112204211020FFF758F994E162
:101EF0004FF40051CB4800F076FC60B900BF4FF4BE
:101F00000051C84800F06FFC0028F8D0681CC5B22A
:101F1000092D00DD0025002D3AD14FF48041C14844
:101F200000F061FC48B900BF4FF48041BD4800F0AB
:101F30005AFC0028F8D009F101094FF40041B948D2
:101F400000F051FC48B900BF4FF40041B54800F023
:101F50004AFC0028F8D0A9F1010933464A46B3A14A
:101F600002A8009402F08AFF022302AA1946202048
:101F7000FFF79BF8002043463A46B0A1009002A824
:101F800002F07CFF022302AA04212020FFF78DF833
:101F9000012D40D1A903A34800E040E100F023FC5B
:101FA00060B900BF4FF480419E4800F01CFC00283F
:101FB000F8D0701CC6B20C2E00DD01264FF4004193
:101FC000984800F010FC58B900BF4FF40041954804
:101FD00000F009FC0028F8D0012E01DD701EC6B209
:101FE00033464A4699A102A8009402F047FF022313
:101FF00002AA19462020FFF758F8002043463A4627
:102000008EA1009002A802F039FF022302AA042147
:102010002020FFF74AF8022D3ED16903814800F0E5
:10202000E2FB60B900BF4FF480417E4800F0DBFB6B
:102030000028F8D0601CC4B21F2C00DD01244FF42E
:102040000041784800F0CFFB58B900BF4FF4004181
:10205000744800F0C8FB0028F8D0012C01DD601E98
:10206000C4B233464A467DA102A8009402F006FF9E
:10207000022302AA19462020FFF717F80020434642
:102080003A466EA1009002A802F0F8FE022302AACE
:1020900004212020FFF709F8032D3FD14FF48041A0
:1020A000604800F0A0FB60B900BF4FF480415D487C
:1020B00000F099FB0028F8D0781CC7B2172F00DD7C
:1020C00000274FF40041574800F08DFB58B900BF7E
:1020D0004FF40041534800F086FB0028F8D0002F51
:1020E00001DD781EC7B233464A4660A102A80094BB
:1020F00002F0C4FE022302AA19462020FEF7D5FFF3
:10210000002043463A465DA1009002A802F0B6FEC8
:10211000022302AA04212020FEF7C7FF042D45D187
:102120002903404800F05FFB80B900BF4FF48041B5
:102130003C4800F058FB0028F8D008F1010000F0FE
:10214000FF08B8F13B0F01DD4FF000084FF40041EC
:10215000344800F048FB70B900BF4FF400413148EB
:1021600000F041FB0028F8D0B8F1000F03DDA8F122
:10217000010000F0FF0833464A463CA102A8009443
:1021800002F07CFE022302AA19462020FEF78DFFF2
:10219000002043463A463DA1009002A802F06EFEA0
:1021A000022302AA04212020FEF77FFF052D34D14F
:1021B0000020CDE900801FFA89F03B4622463146D7
:1021C000FFF7C0FC002035490870FEF753FF0A22D4
:1021D00000210846FEF7E3FF0B2200211020FEF746
:1021E000DEFF02232EA200212020FEF75EFF0C223C
:1021F00002210020FEF7D3FF0D2202211020FEF75E
:10220000CEFF0E2204210020FEF7C9FF0F22042179
:102210001020FEF7C4FF002500E069E600BF07B00C
:10222000BDE8F083000C0140E40800203E25642D49
:10223000253032642D253032640000003A253032DA
:10224000643A253032643A25303264003A25643EDF
:10225000253032642D253032640000003A25642D8B
:10226000253032643E253032640000003A25642D6A
:10227000253032642D253032640000003E25303296
:10228000643A253032643A25303264003A253032DF
:10229000643E253032643A25303264000800002064
:1022A0003A2D2D2D722F6D696E0000001FB5012192
:1022B000042000F0C1FC8020ADF8000048208DF81B
:1022C000030069461E4800F0FBF90121084600F0B2
:1022D000B3FC0721002000F009FB802002900020C1
:1022E0008DF80C000C208DF80D0001208DF80E00EB
:1022F00002A802F0B9F917208DF8040002208DF829
:10230000050003208DF8060001208DF8070001A8C4
:1023100000F00DF91FBD10B5802002F00BFA70B16E
:102320003020FEF782FC00F08000802804D10548B0
:102330000088401C03490880802002F00CFA10BD80
:10234000000801407408002010B56FF0040000F090
:1023500038F92E4800682E49B0FBF1F02D4908707D
:102360000846007800EB4001C1EBC0104FF6FF714A
:1023700001EAC0002849088010BD0146254A1278AC
:102380004A434FF0E0235A6100229A611A461269CB
:1023900042F001021A6100BF4FF0E022106900F024
:1023A00001021AB100F48032002AF5D04FF0E02289
:1023B000126922F001024FF0E0231A6100229A61B3
:1023C00070470146144A12884A434FF0E0235A618D
:1023D00000229A611A46126942F001021A6100BF96
:1023E0004FF0E022106900F001021AB100F48032CF
:1023F000002AF5D04FF0E022126922F001024FF0DE
:10240000E0231A6100229A6170470000100000204A
:1024100000127A009E080020A0080020014600BF9C
:10242000704700BF344A128802F04002002AF9D0F7
:10243000C2B2314B1B1D1A80704710B586B00446DE
:10244000012144F2040000F0F7FB4FF40070ADF8F6
:10245000140003208DF8160018208DF8170005A928
:10246000264800F02DF94FF48060ADF814000420E8
:102470008DF8170005A9214800F022F925208DF8D4
:10248000000002208DF8010003208DF802000120D9
:102490008DF80300684600F04AF801940020ADF87A
:1024A0000800ADF80A00ADF80C00ADF810000C20E3
:1024B000ADF80E0001A9104800F065FC012240F2C1
:1024C00025510D4800F0F7FC01210B4800F0E7FC16
:1024D00006B010BD10B5002440F22551064800F0AA
:1024E000CFFD38B12021044800F0C1FD024800F0C2
:1024F00047FDC4B210BD0000003801400008014093
:102500000648804706480047FEE7FEE7FEE7FEE78D
:10251000FEE7FEE7FEE7FEE7FEE7FEE76F040008E2
:10252000ED00000831490143314A1160704770B530
:10253000002100230F22C47804B32D4C246804F436
:10254000E064C4F5E064210AC1F10403CA404478A0
:1025500004FA03F18478144021430901254C0678DC
:10256000A155047804F01F050124AC4005786D11D5
:10257000AD0005F1E025C5F8004109E0047804F05C
:102580001F050124AC401C4D0678761145F8264005
:1025900070BD1A4A0A400243154B1B1F1A60704750
:1025A00039B1134A121D12680243114B1B1D1A60E8
:1025B00006E00F4A121D126882430D4B1B1D1A6064
:1025C0007047042808D14FF0E021096941F0040167
:1025D0004FF0E022116107E04FF0E021096921F09E
:1025E00004014FF0E0221161704700000000FA057D
:1025F0000CED00E000E400E080E100E080FFFF1F60
:1026000010B50446CC48844208D10121042000F0D2
:102610002DFB0021042000F029FB46E0C74884423E
:1026200008D10121082000F021FB0021082000F042
:102630001DFB3AE0C248844208D10121102000F07D
:1026400015FB0021102000F011FB2EE0BD48844254
:1026500008D10121202000F009FB0021202000F0FA
:1026600005FB22E0B848844208D10121402000F057
:10267000FDFA0021402000F0F9FA16E0B348844248
:1026800008D10121802000F0F1FA0021802000F023
:10269000EDFA0AE0AE48844207D10121801500F02E
:1026A000E5FA0021A01500F0E1FA10BD10B50121F6
:1026B000084600F0DBFA0021012000F0D7FA10BD37
:1026C0002DE9F041024600250026002000230024C9
:1026D000002791F803C00CF00F0591F803C00CF02F
:1026E000100CBCF1000F03D091F802C04CEA0505B4
:1026F00091F800C0BCF1000F31D0146800202BE02D
:102700004FF0010C0CFA00F3B1F800C00CEA03061C
:102710009E4220D183004FF00F0C0CFA03F7BC430C
:1027200005FA03FC4CEA040491F803C0BCF1280F3D
:1027300006D14FF0010C0CFA00FCC2F814C00AE0FC
:1027400091F803C0BCF1480F05D14FF0010C0CFA11
:1027500000FCC2F810C0401C0828D1D31460B1F8A6
:1027600000C0BCF1FF0F34DD546800202EE000F102
:10277000080C4FF0010808FA0CF3B1F800C00CEA9D
:1027800003069E4221D183004FF00F0C0CFA03F791
:10279000BC4305FA03FC4CEA040491F803C0BCF105
:1027A000280F05D100F1080C08FA0CF8C2F81480C3
:1027B00091F803C0BCF1480F07D100F1080C4FF0AD
:1027C000010808FA0CF8C2F81080401C0828CED383
:1027D0005460BDE8F0814FF6FF71018002218170E5
:1027E0000421C17070470246002093680B400BB172
:1027F000012000E0002070470146886880B27047E1
:1028000002460020D3680B400BB1012000E00020FD
:1028100070470146C86880B27047016170474161E6
:1028200070470AB1016100E041617047C1607047C3
:102830004FF480320A4382618161826182698269D8
:10284000704702460020434B18684FF680731840CB
:1028500040EA021008433F4B186070473E49C86188
:102860007047F0B50A46002300240021002500F03F
:102870000046B6F1004F02D1364EF16901E0354E07
:102880007168C0F3034583B200F44016B6F5401FEB
:1028900008D121F070612F4E766826F070662D4FBA
:1028A0007E6012E000F48016B6F5801F06D1032684
:1028B00006FA05F4A14341F0706106E0460D3601C9
:1028C00003FA06F6B14341F0706122B1460D3601BC
:1028D00003FA06F6314300F00046B6F1004F02D18C
:1028E0001C4EF16101E01B4E7160F0BD30B500225D
:1028F0008B071C0F0F2303FA04F2164B08338C10BE
:1029000053F824309343134C08348D1044F8253089
:1029100023468C1053F824308C07240F00FA04F45B
:1029200023430C4C08348D1044F8253030BD0A493F
:10293000DC3108607047000000080140000C0140D5
:10294000001001400014014000180140001C01402B
:10295000002001400000014000002042DF480068E4
:1029600040F00100DD49086008464068DC49084045
:10297000DA49486008460068DA490840D7490860E3
:102980000846006820F4802008600846406820F46B
:10299000FE0048604FF41F0088607047CF49096807
:1029A00021F48031CD4A11601146096821F480215B
:1029B0001160B0F5803F03D0B0F5802F0ED106E056
:1029C000C649096841F48031C44A116007E0C3492F
:1029D000096841F4A021C14A116000E000BF00BFB6
:1029E000704710B501460022002300204A11012A39
:1029F00002D1BA4C236806E0022A02D1B74C236AFE
:102A000001E0B64C636A01F01F02012494401C40AF
:102A10000CB1012000E0002010BD38B5002000906E
:102A20000024002500BF3120FFF7DBFF054600989A
:102A3000401C00900098B0F5A06F01D0002DF2D09E
:102A40003120FFF7CEFF08B1012400E0002420462A
:102A500038BD01460020A14A106820F0F80040EA85
:102A6000C10010607047A04908607047024600200E
:102A70009A4B586820F47C1042EA01031843974BA4
:102A80005860704798490866704701460020934A8D
:102A9000506820F003000843506070478F4840683A
:102AA00000F00C007047014600208C4A506820F06E
:102AB000F00008435060704701460020874A506884
:102AC00020F4E06008435060704701460020834ACC
:102AD000506820F4605040EAC1005060704729B14E
:102AE0007E4A527A02437D4B5A7204E07B4A527A04
:102AF00082437A4B5A7270477B49D83108607047DD
:102B000001460020754A506820F440400843506058
:102B100070470021714A20321170704A82F82010EB
:102B2000012802D004280AD104E001216B4A203296
:102B3000117005E00521694A2032117000E000BFE4
:102B400000BF70476949086070476449096A0143DA
:102B5000624A11627047654944390860704730B570
:102B600000210022002400235C4D6D6805F00C015B
:102B700021B1042905D0082923D105E05C4D056069
:102B800022E05B4D05601FE0544D6D6805F4701246
:102B9000524D6D6805F48034022505EB92421CB954
:102BA000544D554305600BE04C4D6D6805F4003500
:102BB0001DB1504D5543056002E04D4D5543056034
:102BC00002E04B4D056000BF00BF444D6D6805F04D
:102BD000F0010909484D6B5C0568DD4045603F4DDB
:102BE0006D6805F4E061090A434D6B5C4568DD40A2
:102BF00085603A4D6D6805F46051C90A3E4D6B5CC5
:102C00004568DD40C560354D6D6805F44041890B70
:102C10003A4D6B5CC568B5FBF3F5056130BD29B174
:102C20002E4A526902432D4B5A6104E02B4A5269E5
:102C300082432A4B5A61704729B1284A926902435C
:102C4000264B9A6104E0254A92698243234B9A619C
:102C5000704729B1214AD2690243204BDA6104E06E
:102C60001E4AD26982431D4BDA61704729B11B4A63
:102C7000D2680243194BDA6004E0184AD2688243F2
:102C8000164BDA60704729B1144A12690243134B9C
:102C90001A6104E0114A12698243104B1A617047AD
:102CA00012494039086070470F49C86470470B49A2
:102CB000C87170470948406A40F08070074948620F
:102CC000704701460020054A92680A400AB1012077
:102CD00000E00020704701498872704700100240F0
:102CE0000000FFF8FFFFF6FE00004242800442426F
:102CF00000127A0000093D00A8080020B808002052
:102D000010B50446FB48844209D101218803FFF72E
:102D1000ADFF00214FF48040FFF7A8FF32E0F648F6
:102D2000844209D101214804FFF7ADFF00214FF48F
:102D30000030FFF7A8FF25E0F048844209D10121C7
:102D40008804FFF7A0FF00214FF48020FFF79BFFCE
:102D500018E0EB48844209D10121C804FFF793FF32
:102D600000214FF40020FFF78EFF0BE0E54884427E
:102D700008D101210805FFF786FF00214FF48010DC
:102D8000FFF781FF10BD2DE9F04786B005460E46DE
:102D90000024A24600BFA1460027B08900B100BFB1
:102DA0002F462C8A4CF6FF700440F08804432C8296
:102DB000AC894EF6F3100440B0883189084371891C
:102DC00008430443AC81AC8A4FF6FF400440B0890D
:102DD0000443AC8201A8FFF7C2FEC648874202D175
:102DE000DDF810A001E0DDF80CA0A88900F4004097
:102DF00040B10AEBCA0000EB0A1031684900B0FB91
:102E0000F1F807E00AEBCA0000EB0A10316889000C
:102E1000B0FBF1F86420B8FBF0F004012009642154
:102E200001FB1089A88900F4004040B1322000EB7A
:102E3000C900B0FBF1F000F00700044308E03220C5
:102E400000EB09106421B0FBF1F000F00F00044327
:102E50002C8106B0BDE8F0874FF4165101600021C7
:102E60008180C18001810C214181002181817047D5
:102E700010B502460020108A4FF2FF0318400B885D
:102E80004C8823438C882343CC88234318431082E7
:102E900010BD0021018041808180C180704721B137
:102EA000828942F40052828104E082894DF6FF73E8
:102EB0001A4082817047F0B50346002400260025A1
:102EC000002040F66A17B94200D100BF1846C1F38E
:102ED000421401F01F06012707FA06F5012C01D163
:102EE0000C3004E0022C01D1103000E014301AB193
:102EF00007682F43076002E00768AF430760F0BD33
:102F00001AB1838A0B43838202E0838A8B438382D4
:102F10007047028A4FF6F0731A400282028A0A430F
:102F20000282704782894FF2FF731A408281828940
:102F30000A438281704721B1828942F00202828174
:102F400004E082894FF6FD731A4082817047028A3D
:102F50004FF6DF731A400282028A0A4302827047E8
:102F600021B1028A42F48042028204E0028A4BF6D6
:102F7000FF731A4002827047C1F3080282807047D3
:102F800001468888C0F308007047818941F001013B
:102F900081817047028BD2B20283028B42EA012206
:102FA00002837047028B02F47F420283028B0A4342
:102FB0000283704721B1828A42F02002828204E0BB
:102FC000828A4FF6DF731A408282704721B1828A6B
:102FD00042F01002828204E0828A4FF6EF731A40B8
:102FE0008282704721B1828A42F00802828204E024
:102FF000828A4FF6F7731A408282704721B1828924
:1030000042F40042828103E08289C2F30E0282818F
:10301000704721B1828A42F40062828204E0828A8F
:103020004FF2FF731A4082827047828A4FF6FB7319
:103030001A408282828A0A438282704721B1828A40
:1030400042F00202828204E0828A4FF6FD731A4047
:103050008282704702460020B1F5007F00D100BF98
:1030600013880B400BB1012000E00020704701F4F1
:103070000072B2F5007F00D100BFCA4302807047E2
:1030800070B50246002400230025002040F66A1691
:10309000B14200D100BFC1F3421501F01F03012668
:1030A00006FA03F3012D02D19689334006E0022D82
:1030B00002D1168A334001E0968A33400C12012671
:1030C00006FA04F41688344013B10CB1012000E074
:1030D000002070BD10B50022002340F66A14A14202
:1030E00000D100BF0A1201249440A3B2DC43048043
:1030F00010BD00000038014000440040004800407E
:10310000004C00400050004010B50446FA4884428C
:1031100008D101214015FFF7A9FD00216015FFF737
:10312000A5FD17E0F548844208D101210015FFF7FD
:103130009DFD00212015FFF799FD0BE0F04884422A
:1031400008D10121C803FFF791FD00214FF4004091
:10315000FFF78CFD10BD30B50246002000235068FB
:10316000E84C20400D790C6844EA05242043506067
:103170009068E54C2040D1E902542C434D7944EA53
:10318000450420439060D06A20F470000C7C641EDB
:10319000E4B2234340EA0350D06230BD0021016015
:1031A000017141718160C16001210174704721B1D9
:1031B000826842F00102826003E0826822F001022C
:1031C0008260704721B1826842F48072826003E0BD
:1031D000826822F480728260704710B50023CBB2FF
:1031E0001AB144681C43446002E044689C43446054
:1031F00010BD816841F008018160704701460020E0
:103200008A6802F008020AB1012000E0002070473D
:10321000816841F0040181607047014600208A689E
:1032200002F004020AB1012000E00020704721B141
:10323000826842F4A002826003E0826822F4A00265
:1032400082607047014600208A6802F480020AB159
:10325000012000E00020704710B50A46002100233D
:10326000416821F46041531E41EA4331416010BD81
:1032700021B1426842F40062426003E0426822F4F5
:10328000006242607047F0B504460D460020002100
:10329000092D11DDE068A5F10A0606EB46070726B1
:1032A00006FA07F18843A5F10A0606EB460603FA7B
:1032B00006F10843E0600CE0206905EB45070726AE
:1032C00006FA07F1884305EB450603FA06F10843C1
:1032D0002061072A0FDA606B561E06EB86071F2651
:1032E00006FA07F18843561E06EB860605FA06F134
:1032F0000843606322E00D2A0FDA206BD61F06EB2D
:1033000086071F2606FA07F18843D61F06EB8606B6
:1033100005FA06F10843206310E0E06AA2F10D0609
:1033200006EB86071F2606FA07F18843A2F10D0671
:1033300006EB860605FA06F10843E062F0BD21B10E
:10334000826842F48012826003E0826822F4801274
:10335000826070470146C86C80B2704766484C3046
:103360000068704721B1426842F48062426003E025
:10337000426822F480624260704721B1426842F4A0
:103380008052426003E0426822F4805242607047FB
:103390000A460021816821F4E041114381607047B1
:1033A00021B1826842F40042826003E0826822F424
:1033B00000428260704721B1826842F4021282604A
:1033C00003E0826822F40212826070470146002006
:1033D0008A6802F400120AB1012000E00020704760
:1033E000F0B504461546002000220026092911DD0B
:1033F000E068A1F10A0707EB470C072707FA0CF270
:103400009043A1F10A0707EB470703FA07F21043BD
:10341000E0600CE0206901EB410C072707FA0CF291
:10342000904301EB410703FA07F210432061A06BC0
:10343000C0F30156EF1C06F1010CA7EB0C0707EBDC
:10344000870C1F2707FA0CF29043EF1C06F1010CC2
:10345000A7EB0C0707EB870701FA07F21043A063FD
:10346000F0BD10B50A4600210023816B21F4401104
:10347000531E41EA0351816310BD08B50023009338
:103480000090009B0B440093009B1A6008BD08B598
:10349000024600200090009201F12800009B184491
:1034A00000900098006880B208BD0A46002141687B
:1034B000164B194011434160704741628262704768
:1034C0000A460021416821F01F0111434160704705
:1034D00040B109490831096841F40001064A08323F
:1034E000116007E004490831096821F40001024A2B
:1034F000083211607047000000240140002801409C
:10350000003C0140FFFEF0FFFDF7F1FFFFFD3FFF34
:103510000246002013680B400BB1012000E00020A0
:103520007047CA430260704770B50246002000230E
:1035300000240B125568CEB205EA060415681D403A
:1035400015B10CB1012000E0002070BD00220A126C
:10355000D34303607047000010B50446FE48844220
:1035600008D10121C014FFF781FB0021E014FFF70F
:103570007DFBC4E0B4F1804F08D101210846FFF77C
:1035800082FB00210120FFF77EFBB8E0F348844274
:1035900008D101210220FFF776FB00210220FFF76E
:1035A00072FBACE0EE48844208D101210420FFF711
:1035B0006AFB00210420FFF766FBA0E0E948844293
:1035C00008D101210820FFF75EFB00210820FFF74A
:1035D0005AFB94E0E448844208D101211020FFF70F
:1035E00052FB00211020FFF74EFB88E0DF488442A9
:1035F00008D101212020FFF746FB00212020FFF702
:1036000042FB7CE0DA48844208D101214014FFF7F4
:103610002DFB00216014FFF729FB70E0D5488442A0
:1036200009D10121C804FFF721FB00214FF400203C
:10363000FFF71CFB63E0D048844209D10121080553
:10364000FFF714FB00214FF48010FFF70FFB56E04B
:10365000CA48844209D101214805FFF707FB002130
:103660004FF40010FFF702FB49E0C548844208D13F
:1036700001214020FFF707FB00214020FFF703FB5B
:103680003DE0C048844208D101218020FFF7FBFAC9
:1036900000218020FFF7F7FA31E0BB48844208D1CF
:1036A00001218015FFF7EFFA0021A015FFF7EBFAD3
:1036B00025E0B648844209D101210804FFF7D6FA73
:1036C00000214FF48030FFF7D1FA18E0B04884426F
:1036D00009D101214804FFF7C9FA00214FF4003055
:1036E000FFF7C4FA0BE0AB48844208D101218804FB
:1036F000FFF7BCFA00214FF48020FFF7B7FA10BDA6
:1037000000220288944B98420ED0994B98420BD0DD
:10371000B0F1804F08D0914B984205D0904B984221
:1037200002D0904B984204D14FF68F731A404B88C9
:103730001A438D4B984207D08C4B984204D04FF6D9
:10374000FF431A40CB881A4302808B8883850B88FD
:103750000385814B98420BD0854B984208D08B4B08
:10376000984205D08A4B984202D08A4B984201D1A8
:103770000B7A038601238382704770B500240022F0
:103780000023058C4FF6FE7635400584028C838835
:10379000048B4FF68F752C40B51E2C400D882C43A2
:1037A000751E2A400D892A434D882A436A4DA84236
:1037B0000BD06F4DA84208D0744DA84205D0744D6F
:1037C000A84202D0734DA84213D14FF6F7752A4094
:1037D0004D892A434FF6FB752A408D882A434FF6C0
:1037E000FF652B404FF6FF552B408D892B43CD892C
:1037F0002B4383800483CD888586028470BD70B599
:10380000002400220023058C4FF6EF763540058416
:10381000028C8388048B48F6FF752C404FF6FF45D9
:103820002C400D884FF6FF7606EA05252C434FF60F
:10383000DF752A400D8906EA05152A434D8806EAF8
:1038400005152A43444DA84202D0494DA8421DD136
:103850004FF67F752A404D894FF6FF7606EA05152B
:103860002A434FF6BF752A408D8806EA05152A437C
:103870004FF6FF352B404FF2FF752B408D8906EA3E
:1038800085052B43CD8906EA85052B438380048378
:10389000CD880587028470BD70B500240022002306
:1038A000058C4FF6FF6635400584028C8388848B37
:1038B0004FF68F752C404FF6FC752C400D882C432D
:1038C0004FF6FF552A400D894FF6FF7606EA05258B
:1038D0002A434D8806EA05252A431F4DA84202D0F7
:1038E000234DA8421DD14FF2FF752A404D894FF656
:1038F000FF7606EA05252A434FF6FF352A408D88D4
:1039000006EA05252A434EF6FF752B404DF6FF7556
:103910002B408D8906EA05152B43CD8906EA05154E
:103920002B4383808483CD888587028470BD70B5E6
:10393000002200230024058C4EF6FF7635400584D6
:10394000038C8488828B48F6FF752A404FF6FF452A
:103950002A400D8820E00000002C014000040040B7
:1039600000080040000C004000100040001400401F
:1039700000340140004C014000500140005401401F
:1039800000180040001C00400020004000400140A2
:1039900000440140004801404FF6FF7606EA052545
:1039A0002A434DF6FF752B400D8906EA05352B435A
:1039B0004D8806EA05352B43FA4DA84202D0FA4D50
:1039C000A84208D14BF6FF752C408D894FF6FF7643
:1039D00006EA85152C4384808283CD88A0F8405068
:1039E000038470BD828B4FF2FF331A408283828B37
:1039F0004FF6FF7303EA01231A4382837047F0B541
:103A00000C461546002200210026078C4EF6FF7C4E
:103A100007EA0C070784828B018C4FF6FF7707EAD1
:103A2000043640F6FF473A404FF6FF7707EA05278E
:103A30003A434FF6FF7707EA03373A43D94FB84284
:103A40000ED0D94FB8420BD0B0F1804F08D0D74F2D
:103A5000B84205D0D64FB84202D0D64FB84206D1B0
:103A60004DF6FF77394046F48057394305E047F675
:103A7000FF57394044F48057394382830184F0BDB5
:103A8000828B4FF6F3731A408283828B0A438283C0
:103A90007047F0B50C461546002200210026078C21
:103AA0004FF6FF6C07EA0C070784828B018C4FF6F8
:103AB000FF7707EA04264FF60C773A404FF6FF7778
:103AC00007EA03172F433A43B64FB8420ED0B64F1A
:103AD000B8420BD0B0F1804F08D0B44FB84205D0F7
:103AE000B34FB84202D0B34FB84206D14FF6FF579A
:103AF000394046F48077394305E04FF2FF573940AB
:103B000044F48077394382830184F0BD028B4FF205
:103B1000FF331A400283028B4FF6FF7303EA01233F
:103B20001A4302837047F0B50C4615460022002167
:103B30000026078C4FF6EF7C07EA0C070784028B00
:103B4000018C4FF6FF7707EA041640F6FF473A402C
:103B50004FF6FF7707EA03373A434FF6FF7707EA56
:103B600005273A438F4FB8420ED08F4FB8420BD043
:103B7000B0F1804F08D08D4FB84205D08C4FB8427D
:103B800002D08C4FB84206D14FF6DF77394046F06D
:103B90001007394305E04FF65F77394044F01007CE
:103BA000394302830184F0BD028B4FF6F3731A4050
:103BB0000283028B0A4302837047F0B50C46154618
:103BC00000220021068C4FF6FE773E400684028BD1
:103BD000018C4FF60C7632407E1C06EA03162E430B
:103BE0003243704EB0420ED06F4EB0420BD0B0F1A7
:103BF000804F08D06D4EB04205D06D4EB04202D01D
:103C00006C4EB04206D14FF6FD76314044F00106CD
:103C1000314305E04FF6F576314044F0010631437B
:103C200002830184F0BD70B505460C465D488542AF
:103C30000ED05D4885420BD0B5F1804F08D05B486F
:103C4000854205D05A48854202D05A48854200D163
:103C500000E000BF208850B92389A28861882846E7
:103C6000FFF7ABFFE1882846FFF79EFF25E020889D
:103C700004280AD12389A28861882846FFF753FFC8
:103C8000E1882846FFF742FF17E0208808280AD17C
:103C90002389A28861882846FFF7FBFEE188284631
:103CA000FFF7EEFE09E02389A28861882846FFF726
:103CB000A6FEE1882846FFF795FE70BD2DE9F0418C
:103CC00005460C4600260127608808B9022600E058
:103CD0000026A088012801D1022700E001272088C2
:103CE000A0B92389A28861882846FFF766FFE1888A
:103CF0002846FFF759FF23893A4631462846FFF701
:103D000012FFE1882846FFF701FF13E02389A2880C
:103D100061882846FFF707FFE1882846FFF7F6FE8F
:103D200023893A4631462846FFF747FFE18828466F
:103D3000FFF73AFFBDE8F0810A884B881A438B8869
:103D40001A43CB881A430B891A434B891A438B8930
:103D50001A43A0F8442070474FF6FF71818000217C
:103D60000180C18041800172704700210180418043
:103D70008180C180018141818181C18170470021A1
:103D800001804180012181800021C1800181704733
:103D90000021018041808180C18001814181818138
:103DA00070470000002C0140003401400004004036
:103DB00000080040000C004021B1028842F00102DE
:103DC000028004E002884FF6FE731A4002807047BA
:103DD00031B1B0F8442042F40042A0F8442005E09C
:103DE000B0F84420C2F30E02A0F8442070471AB184
:103DF00083890B43838102E083898B4383817047EE
:103E00008182704741EA0203A0F8483070471AB136
:103E100083890B43838102E083898B4383817047CD
:103E200001894FF6F8721140018170470A4600215E
:103E300001894FF68F73194011430181704730B5E6
:103E400004460D4629462046FFF7F0FF208940F042
:103E50000700208130BD2DE9F04104460D4616468D
:103E60001F46602D06D13B46012231462046FFF712
:103E70005AFE05E03B46012231462046FFF79DFEF3
:103E800029462046FFF7D2FF208940F00700208115
:103E9000BDE8F08130B50C4600210189C9B24FF66A
:103EA000FF7505EA0325154325432943018130BDEC
:103EB0002DE9F04105460E46174698460024434634
:103EC0003A4631462846FFF7E5FF2C894FF6F87051
:103ED000044044F007044FF68F70044044F070042F
:103EE0002C81BDE8F081F0B504460D4616461F460C
:103EF0003B46324629462046FFF7CCFF208940F456
:103F000080402081F0BD0185828270470A460021F1
:103F100001884FF68F731940114301807047F0B547
:103F20000C4615461E460021002200230189028B03
:103F3000038C4FF6F877394021434FF6FC473A405F
:103F400040F201173A434FF6DD773B404FF6FF77DB
:103F500007EA06172F433B43018102830384F0BD28
:103F60000A460021018B4FF68F73194011430183DC
:103F700070470A460021018B48F6FF7319404FF63F
:103F8000FF7303EA02231943018370470A460021A5
:103F9000818B4FF68F7319401143818370470A4616
:103FA0000021818B48F6FF7319404FF6FF7303EA37
:103FB000022319438183704721B1028842F08002B5
:103FC000028004E002884FF67F731A400280704737
:103FD00021B1828842F00402828004E082884FF698
:103FE000FB731A408280704721B1828842F0080238
:103FF000828004E082884FF6F7731A40828070470F
:1040000021B1828842F00102828004E082884FF66A
:10401000FE731A40828070470A460021018B4FF6DA
:10402000F77319401143018370470A460021018B41
:104030004FF2FF7319404FF6FF7303EA022319434F
:10404000018370470A460021818B4FF6F7731940B0
:104050001143818370470A460021818B4FF2FF7321
:1040600019404FF6FF7303EA022319438183704717
:104070000A460021018B4FF6FB731940114301835F
:1040800070470A460021018B4FF6FF3319404FF667
:10409000FF7303EA02231943018370470A46002194
:1040A000818B4FF6FB7319401143818370470A4699
:1040B0000021818B4FF6FF3319404FF6FF7303EA5F
:1040C00002231943818370470A460021018B4FF672
:1040D0007F7319401143018370470A460021018B09
:1040E000C1F30E014FF6FF7303EA02231943018364
:1040F00070470A460021818B4FF67F7319401143A8
:10410000818370470A460021818BC1F30E014FF66F
:10411000FF7303EA02231943818370470A46002193
:10412000018C4FF6FD7319401143018470470A4614
:104130000021018C4FF6F773194011430184704739
:104140000A460021018C4FF6DF7319404FF6FF73CA
:1041500003EA02131943018470470A460021018CC7
:104160004FF67F7319404FF6FF7303EA02131943AA
:10417000018470470A460021018C4FF6FF53194015
:104180004FF6FF7303EA02231943018470470A467E
:104190000021018C4FF2FF7319404FF6FF7303EAC1
:1041A00002231943018470470A460021018C4DF611
:1041B000FF7319404FF6FF7303EA0233194301847A
:1041C000704730B5002301248C40A3B2048C9C437B
:1041D0000484048C02FA01F5ADB22C43048430BD92
:1041E00030B5002304248C40A3B2048C9C43048487
:1041F000048C02FA01F5ADB22C43048430BD70B5D5
:104200000346002000241846183001258D40ACB22A
:104210001D8CA5431D8409B1082909D100EB61005B
:10422000056825F0700505600568154305600EE01A
:104230000D1FC5F34E052844056825F4E0450560CB
:1042400005684FF6FF7606EA02263543056070BD25
:1042500021B1028842F00202028004E002884FF697
:10426000FD731A400280704721B1028842F00402B7
:10427000028004E002884FF6FB731A400280704708
:1042800021B1828842F08002828004E082884FF669
:104290007F731A408280704702884FF6F7731A4086
:1042A000028002880A430280704782884FF68F732B
:1042B0001A40828082880A438280704702894FF6C2
:1042C000F8731A40028102890A4302817047028909
:1042D0004FF67F731A40028102890A4302817047B8
:1042E0008184704781857047818670470187704758
:1042F00081877047A0F84010704702884FF6FF434F
:104300001A40028002880A43028070470146888E64
:1043100070470146088F70470146888F70470146F5
:10432000B1F8400070470146888C70470146088DFF
:10433000704702460020138A0B400BB1012000E0B9
:1043400000207047CA430282704730B50246002001
:1043500000230024158A05EA0103958905EA010472
:1043600013B10CB1012000E0002030BDCA4302822D
:104370007047000029B1504A128802434E4B1A8000
:1043800004E04D4A128882434B4B1A8070474A48DA
:10439000001D008840F010004749091D0880704743
:1043A0004548001D00884FF6EF7108404249091D3D
:1043B00008807047002140481C300188001F008899
:1043C00041EA0040704700B50246FFF7E0FF100CDD
:1043D000394918310880091D0A80FFF7E1FF00BD47
:1043E00000B50246FFF7D3FFC2F30340324908315C
:1043F0000880091D0A80FFF7D3FF00BD00B5024603
:10440000FFF7C5FF100C2C4920310880091D0A80D8
:10441000FFF7C6FF00BD00202749103109880907B2
:10442000080B2549143109880843704700BF22480A
:10443000001D008800F020000028F8D070471E48BA
:10444000001D00884FF6F77108401B49091D0880C0
:1044500000BF1948001D008800F008000028F8D0AF
:10446000704701460020144A121D12880A400AB102
:10447000012000E0002070470F49091D0988814391
:104480000D4A121D11807047014600200A4A121D74
:1044900012880A40D0B2084A12880A4012B108B104
:1044A000012000E0002070470349091D098881436D
:1044B000014A121D118070470028004010B50121EB
:1044C0000807FEF7E0FB00214FF08050FEF7DBFB12
:1044D00010BD2A49086270472849086170470146A3
:1044E0000020274A106820F0E00008431060704761
:1044F0002249A0310860704710B502460020204BC9
:10450000186820F00300104318601E4B1B6843F02E
:1045100004031C4C2360012901D130BF00E020BFFF
:10452000184B1B6823F00403164C236010BD14487D
:10453000006840F00400124908600846006840F036
:10454000020008600F48006840F004000D49086050
:1045500000BF00BF30BF704701460020084A5268C4
:104560000A400AB1012000E00020704704490968B0
:1045700041EA8001024A11607047000000000E42CB
:104580000070004010ED00E010B50120FEF788FB40
:104590000020FEF785FB10BD2A49086070472949B5
:1045A000091F086070472749843108607047014639
:1045B0000020254A10884FF67F4210400843224AC7
:1045C00010807047014600201F4A10884FF6807205
:1045D000104008431C4A1080704708B50022009222
:1045E000194A2C3A0092009A02440092009A1160F3
:1045F00008BD08B501460020009013482C380090F3
:104600000098084400900098008808BD0D489C3030
:104610000068C0B270470C480830008840F00100C4
:1046200009490831088070470648A0300068C0B2C8
:10463000704705480830008840F002000249083100
:104640000880704704860D422C6C004000204449CD
:104650000860091D0860091D0860091D08604148BF
:104660003F4914310860704700213D498279002A92
:104670003AD00A46126803689A430B461A600A1D2C
:10468000126803689A430B1D1A60027911440A6884
:1046900003681A430A60324A0832126803689A4370
:1046A0002F4B08331A601A1D126803689A432C4B6B
:1046B0000C331A604279102A0ED11A1F126803684F
:1046C0001A43274B08331A601A1D126803681A43ED
:1046D000234B0C331A600DE02149427911440A68DA
:1046E00003681A430A6005E0027911440A68036806
:1046F0009A430A6070470021016001710C214171E9
:104700000021817170471649103109680143144A2C
:1047100010321160704701460020114A14321268AD
:104720000A400AB1012000E0002070470C49143112
:1047300008607047014600200022094B1B6803EA0D
:104740000102074B14331B680B4013B10AB101205F
:1047500000E00020704702491431086070470000F3
:1047600000040140FFFF0F0030B480EA010202F0B4
:10477000004530F0004221F0004013D090B1C30D4D
:10478000D40DC2F31601C0F31600E41A41F400017F
:1047900040F400027D34914201D3641C00E04900E2
:1047A000002C02DA30BC002070474FF400000023D8
:1047B000914201D3891A034340084FEA4101F7D1DE
:1047C00051B1914202D14FF0004105E002D24FF0C9
:1047D000010101E06FF0010103EBC450284430BC3B
:1047E00000F004B92DE9FE4F81EA030404F000440F
:1047F00021F0004100944FF0000B23F0004350EAF9
:1048000001045ED052EA03045BD0C3F30A54C1F33F
:104810000A552C44A4F2F3340194A0FB0254C1F3D2
:10482000130141F48011C3F3130343F4801301FB1C
:10483000024400FB034E840A970A44EA815447EA83
:104840008357A4FB076802958D0A05FB07854FEA8D
:10485000932C04FB0C542705029D4FEA065847EAA7
:104860001637B5EB08056EEB070C870E920E47EA7C
:10487000811742EA8312A7FB0201B6EB0B0164EB3E
:1048800000042B0D43EA0C335E1844EB1C50DA464F
:104890005146E7FB0201C5F313044FEA0B3343EA29
:1048A00014534FEA0432019C43EA0603A4F10C04BA
:1048B0000294009CCDE900B400F0DEF803B0BDE83E
:1048C000F08F00200146F9E7C10F80EAE07008444C
:1048D000CA079623002100F092B870B5C1F30A52BE
:1048E00001F000450024C1F3130140F2FF3341F40D
:1048F00080119A4201DA002070BD40F233439A429F
:10490000A2F2334203DC524200F060F800E0904033
:104910002C43F1D0404270BD00F0004230F0004026
:104920000AD0C10D01F56071C0F3160042EA0151D1
:10493000C20840071143704700200146704730B558
:104940000B46014600202022012409E021FA02F54D
:104950009D4205D303FA02F5491B04FA02F52844E7
:10496000151EA2F10102F1DC30BD2DE9F05F054614
:10497000002092469B4688460646814640241BE01E
:10498000284641464746224600F020F853465A46FC
:10499000C01A914110D311461846224600F012FA6F
:1049A0002D1A67EB01084F4622460120002100F036
:1049B00009FA17EB00094E41201EA4F10104DFDCC7
:1049C000484631462A464346BDE8F09F202A04DB8C
:1049D000203A21FA02F00021704721FA02F3D04078
:1049E000C2F1200291400843194670470029A8BF30
:1049F0007047401C490008BF20F00100704710B408
:104A0000B0FA80FC00FA0CF050EA010404BF10BCBC
:104A1000704749B1CCF1200421FA04F411FA0CF1E9
:104A200018BF012121430843A3EB0C01CB1D4FEA22
:104A300000614FEA102042BF002010BC704700EB1D
:104A4000C35010440029A4BF10BC7047401C49004B
:104A500008BF20F0010010BC704710B5141E73F1A0
:104A6000000408DA401C41F1000192185B411A432E
:104A700001D120F0010010BD2DE9F04D92469B467A
:104A800011B1B1FA81F202E0B0FA80F22032904620
:104A900000F098F904460F4640EA0A0041EA0B018B
:104AA00053465A46084313D0114653EA010019D021
:104AB000C8F140025046FFF789FF05460E465046B2
:104AC0005946424600F07EF9084305D0012004E033
:104AD00020463946BDE8F08D0020054346EAE076E1
:104AE0002C4337430A986305E40AA0EB0800002230
:104AF000FD0A44EA47540A3002D500200146E9E79E
:104B0000010510196941DDE9084500196941BDE851
:104B1000F04DA2E72DE9FE4F804681EA0300C00F69
:104B20000C46009021F0004123F00045B8EB020054
:104B3000A94105D24046214690461C460B460246F6
:104B400023F00040104347D0270DC7F30A00C3F3FA
:104B50000A510290401A019040286BDAC3F3130007
:104B600040F4801B0098924620B10023D2EB030A48
:104B700063EB0B0B01985946C0F14002504600F020
:104B800021F906460D4650465946019A00F029F98A
:104B900010EB08006141002487EA115284EAE773B0
:104BA0001A4340D0009A62B3019A012A4FEA075291
:104BB00015DC001B61EB02014FF0004202EA0752D4
:104BC000CDE90042001C41F5801132462B46FFF72B
:104BD00053FF03B0BDE8F08F40462146F9E7001BC4
:104BE00061EB0201001C41F5801300185B412018A5
:104BF000A2F5001747EB030140EAD570B6196D41E5
:104C000011E06D084FEA360645EAC0754FEA0752D3
:104C1000001B61EB0201001C41F5801149084FEABD
:104C200030000019514132462B4603B0BDE8F04F29
:104C3000FFF713BF0098012240000023D0EB0202CF
:104C400063EBE073009821464FEAE074B8EB000094
:104C500061EB0401E9E783F000435BE781F0004189
:104C600058E72DE9F04D81EA030404F0004B21F0F0
:104C7000004514464FF0000A23F0004150EA0502B7
:104C800020D054EA01021DD0C5F30A570246C5F3ED
:104C90001303C1F31300C1F30A5640F4801543F423
:104CA0008013A7EB0608101BD64608F2FD3873EBFD
:104CB000050002D308F1010801E092185B41B8F148
:104CC000000F03DA00200146BDE8F08D00204FF40C
:104CD0008011064684460EE0171B73EB050705D3CB
:104CE000121B63EB050306434CEA010C49084FEA2B
:104CF000300092185B4150EA0107EDD152EA0300FF
:104D000012D082EA040083EA0501084305D0101B93
:104D1000AB4106D20122002306E000224FF00043FF
:104D200002E06FF0010253101AEB06004CEB085141
:104D300010EB0A0041EB0B01BDE8F04DFFF78DBE13
:104D4000C1F30A52C1F3130140F2FF3341F4801161
:104D50009A4202DA00200146704740F233439A42F9
:104D6000A2F2334202DC5242FFF730BE00F02AB812
:104D700030B5041E71F1000404DB4FF000444042E2
:104D800064EB0101141E73F1000405DB1C464FF0B7
:104D90000043524263EB0403994208BF904230BD86
:104DA000064C074D06E0E06840F0010394E8070078
:104DB00098471034AC42F6D3FBF79CF9C05F00086B
:104DC000E05F0008202A04DB203A00FA02F100200C
:104DD00070479140C2F1200320FA03F31943904039
:104DE0007047202A06DBCB17203A41FA02F043EA4B
:104DF000E07306E041FA02F3D040C2F12002914094
:104E000008431946704770B58C1810F8015B15F00F
:104E1000070301D110F8013B2A1106D110F8012B2C
:104E200003E010F8016B01F8016B5B1EF9D12B0751
:104E300005D40023521E0DD401F8013BFAE710F807
:104E4000013BCB1A921C03E013F8015B01F8015BF4
:104E5000521EF9D5A142D8D3002070BD0FB4054B26
:104E600010B503A9044A029800F0EEF810BC5DF8F2
:104E700014FB000023240008A40800200FB4084BF2
:104E800010B504A902AA039800F0DEF8044602A9AE
:104E9000002000F070FC204610BC5DF814FB000000
:104EA0007757000802E008C8121F08C1002AFAD18B
:104EB00070477047002001E001C1121F002AFBD19A
:104EC000704700002DE9FF5F82B00021DDE904306A
:104ED000020DDDF840B0034318D044F61050A2F2A2
:104EE000FF3242431514119801281FD0A5EB0B0087
:104EF000401C5FEA000A4FF000064E4FDFF8389181
:104F0000B046504615D5CAF1000413E011980124AB
:104F10004AA3012801D16FEA0B010298119AC0E956
:104F20000031C0E9024206B0BDE8F09FCBF10000BD
:104F3000DFE704460021404A491842EB0450CDE91E
:104F4000001012E0E00707D032463B464046494693
:104F5000FFF748FC8046894632463B4610461946D4
:104F6000FFF740FC06460F466410002CEAD1DDE94D
:104F70000401DDE90023BAF1000F06DAFFF732FC85
:104F800042464B46FFF72EFC05E0FFF76AFE42461D
:104F90004B46FFF766FE04460E460022284BFFF7FD
:104FA000E7FE03D84FF0FF30014607E00022254B13
:104FB00020463146FFF7AEFDFFF7C2FE102409E0A0
:104FC000002C0ADB0A220023FFF7CFFC039B3032C0
:104FD0001A55641E50EA0102F2D1641C039AC4F10E
:104FE00011031444119A012A03D0012208430DD160
:104FF0000AE0084304D000204FF0110B119072E733
:10500000A3EB0B056D1E0DE05B4504DD4FF00002C8
:1050100005F1010504E003DA4FF00002A5F10105F6
:10502000002AECD002981199C0E90231C0E900458C
:1050300079E70000000014400000F03F300000005D
:105040000000F0430000E03F2DE9FF4F95B09B4684
:105050008946064600250FE2252877D100242746F9
:10506000F84A0121059400E0044316F8013F203B73
:1050700001FA03F01042F7D130782A2811D06FF0EE
:105080002F033078A0F13002092A16D8059A44F08F
:10509000020402EB820203EB42021044761C0590EC
:1050A000EFE759F8042B0592002A03DA504244F442
:1050B0000054059044F00204761C30782E2816D156
:1050C00016F8010F44F004042A280DD06FF02F02C7
:1050D0003078A0F13003092B09D807EB870302EBE6
:1050E0004303C718761CF3E759F8047B761C307825
:1050F0006C280FD006DC4C2817D068280DD06A2801
:1051000014D104E0742810D07A280FD10DE044F4B3
:1051100000140AE044F4801401E044F4401472786E
:10512000824202D104F58014761C761C3078662801
:105130000BD013DC582877D009DC002875D045281F
:10514000F6D04628F4D047281AD19DE118E063280C
:1051500035D0642879D0652812D195E1702873D0B4
:1051600008DC6728F1D069286FD06E280DD06F2831
:1051700006D1B5E073282CD0752875D0782874D066
:105180005A46179990476D1C75E1C4F302500228E6
:1051900009D003280DD0D9F8001004280DD00D60D7
:1051A00009F1040967E1D9F80010EA17C1E90052D2
:1051B000F6E7D9F800100D80F2E70D70F0E719F866
:1051C000041B8DF8001000208DF80100EA46012034
:1051D00003E059F804AB4FF0FF3061074FF00001D6
:1051E00002D40DE008F101018846B9420FDA80458A
:1051F000F8DB1AF808100029F4D108E008F10101E1
:1052000088468142FADB1AF808100029F6D1059881
:105210005B46A0EB080721463846179A00F094FA3F
:10522000284400EB080507E04DE029E10DE01AF8FD
:10523000010B5A4617999047B8F10108F7D25B461F
:1052400021463846179A13E142E00A220092C4F33D
:1052500002524FF0000A022A08D059F804CB032A60
:105260004FEAEC710AD00DE029E02AE009F10701CC
:1052700021F00702F2E802C1914609E00FFA8CFC26
:105280004FEAEC71042A03D14FFA8CFC4FEAEC711F
:10529000002907DA0A460021DCF1000C61EB02016B
:1052A0002D2202E0220504D52B228DF804200122B4
:1052B00003E0E20701D02022F7E7904659E00A21F7
:1052C00002E010220DE010214FF0000A00910BE0E7
:1052D00010224FF0000A44F004040827009203E073
:1052E00008224FF0000A0092C4F30252022A05D0AD
:1052F00059F804CB0021032A08D009E009F107017D
:1053000021F00702F2E802C1914605E01FFA8CFC89
:10531000042A01D10CF0FF0C4FF00008220728D519
:10532000702806D0009B83F0100353EA0A0305D0CF
:105330000EE040228DF80420012208E05CEA010220
:1053400006D030228DF804208DF805000222904608
:10535000009B83F0080353EA0A030AD15CEA0102C6
:1053600001D1620705D530228DF804204FF00108E5
:105370007F1E582804D034A003900EA802900DE0A0
:1053800036A0F9E753466046009AFFF7EEFA8446E6
:105390000398825C0298401E029002705CEA010051
:1053A000F0D1029806A9081A00F1200A600702D578
:1053B00024F4803400E00127574502DDA7EB0A0002
:1053C00000E0002000EB0A01009005984144401ADB
:1053D0000590E00306D45B462146179A059800F035
:1053E000B3F90544002706E001A85A46C05D1799A5
:1053F00090476D1C7F1C4745F6DBE0030CD55B46F0
:105400002146179A059800F09FF9054404E03020E2
:105410005A46179990476D1C0099481E0090002924
:10542000F5DC08E0029802995A460078491C02917E
:10543000179990476D1CBAF10001AAF1010AF1DC3D
:1054400065E1000009280100303132333435363748
:1054500038396162636465660000000030313233C0
:105460003435363738394142434445460000000060
:1054700000F058F90544761C307800287FF4ECAD34
:1054800019B02846BDE8F08F620700D4062709F15D
:10549000070222F0070CFCE80223E14603F0004873
:1054A0005FEA080C02D00FF2702C0DE05FEA045C9A
:1054B00002D50FF2682C07E05FEAC47C02D00FF23D
:1054C000602C01E0AFF2700C4FF0FF3823F0004386
:1054D000CDF850C065280CD006DC452809D04628F8
:1054E0001DD047283DD13DE0662818D067287ED1E1
:1054F00038E00021112F01DB112000E0781CCDE9FC
:10550000000106A90EA8FFF7DDFCDDE90F010E9AE8
:1055100003910021009207F1010A04914DE04FF040
:1055200000400097CDE9011006A90EA8FFF7CAFCBC
:10553000DDE90F0203920E9B11990022DDF80CA009
:105540000093049211B9791C00EB010AB7EB0A0031
:1055500004D4C0F1FF3007F1010A0490AAEB070060
:10556000019044E0012F00DA01270021112F01DD15
:10557000112000E03846CDE9000106A90EA8FFF78A
:10558000A1FCDDE90F010E9A039100210491009224
:10559000BA4621070CD40399514500DA8A46BAF17C
:1055A000010F05DD009AAAF10101515C302908D0F4
:1055B000B84202DA10F1040F06DA0121CDE9011038
:1055C00015E0AAF10101E9E7002805DC049901448E
:1055D0000491AAEB000102E0411C514500DD8A461E
:1055E0000499401A401C01904FF00040029020079F
:1055F00004D40198504501DBCDF8048000208DF8DB
:105600004F0002980DF14F07B0F1004F25D02B202D
:105610000E9002984FF0020800280CDA40420290E7
:105620002D200E9007E00A210298FFF788F930310B
:10563000029007F8011DB8F10001A8F10108F2DCA1
:1056400002980028EFD1791E0E980870307800F08B
:10565000200040F0450007F8020D12A8C01B00F121
:1056600007081498007800B1012000EB0A010198A6
:1056700001EBE07105984144401A401E0590E0039B
:1056800006D45B462146179A059800F05DF805445C
:105690001498007818B15A46179990476D1CE0038A
:1056A00024D55B462146179A059800F04DF805442D
:1056B0001CE00498002807DBDDE90301884203DDD4
:1056C0000098405C179901E0179930205A4690479E
:1056D000049805F10105401C04900198401E0190BA
:1056E00004D12E205A46179990476D1CBAF100013B
:1056F000AAF1010ADDDC05E017F8010B5A461799FB
:1057000090476D1CB8F10001A8F10108F4DC5B467C
:105710002146179A0598ABE62D0000002B000000EB
:10572000200000002DE9F041044600251E461746E2
:10573000880404D405E039462020B0476D1C641E5F
:10574000F9D52846BDE8F0812DE9F0410446002551
:105750001E469046C80301D5302700E02027880464
:1057600004D505E041463846B0476D1C641EF9D5A6
:105770002846BDE8F0810A68531C0B601070704722
:1057800020000000000000000000000000000000F9
:105790000000000000000000002F000000000700D3
:1057A000070000147F147F1400242A7F2A1200624D
:1057B00064081323003649552250000005030000F9
:1057C00000001C224100000041221C000014083E81
:1057D00008140008083E0808000000A06000000847
:1057E000080808080000606000000020100804029B
:1057F000003E5149453E0000427F40000042615159
:105800004946002141454B31001814127F100027F2
:1058100045454539003C4A494930000171090503B5
:1058200000364949493600064949291E00003636E6
:105830000000000056360000000814224100001449
:105840001414141400004122140800020151090626
:1058500000324959513E007C1211127C007F4949A7
:105860004936003E41414122007F4141221C007FD8
:1058700049494941007F09090901003E4149497AE6
:10588000007F0808087F0000417F41000020404160
:105890003F01007F08142241007F40404040007FCC
:1058A000020C027F007F0408107F003E4141413E10
:1058B000007F09090906003E4151215E007F091958
:1058C00029460046494949310001017F0101003F55
:1058D0004040403F001F2040201F003F4038403FD5
:1058E0000063140814630007087008070061514939
:1058F000454300007F41410000552A552A550000CC
:1059000041417F0000040201020400404040404049
:10591000000001020400002054545478007F4844E1
:10592000443800384444442000384444487F003818
:105930005454541800087E0901020018A4A4A47C41
:10594000007F080404780000447D4000004080840B
:105950007D00007F102844000000417F4000007C53
:1059600004180478007C080404780038444444385F
:1059700000FC242424180018242418FC007C0804AB
:10598000040800485454542000043F444020003C84
:105990004040207C001C2040201C003C4030403C0B
:1059A000004428102844001CA0A0A07C004464549B
:1059B0004C441414141414140000000000000000DF
:1059C0000000000000000000000000F800000000DF
:1059D000000000333000000000100C06100C060020
:1059E000000000000000000040C07840C078400087
:1059F000043F04043F040400007088FC08300000E9
:105A0000001820FF211E0000F008F000E018000040
:105A100000211C031E211E0000F0088870000000F9
:105A20001E2123241927211010160E00000000004B
:105A30000000000000000000000000E01804020068
:105A4000000000071820400000020418E0000000D9
:105A50000040201807000000404080F080404000D7
:105A60000202010F01020200000000F0000000002D
:105A70000101011F01010100000000000000000001
:105A800080B0700000000000000000000000000076
:105A900000010101010101010000000000000000FF
:105AA000003030000000000000000000806018049A
:105AB000006018060100000000E010080810E00077
:105AC000000F102020100F00001010F80000000040
:105AD0000020203F20200000007008080888700087
