:020000040800F2
:10000000F0100020E9290008190700081B07000864
:100010001F0700082307000827070008000000004A
:100020000000000000000000000000002B07000896
:100030002D070008000000002F0700083107000806
:10004000032A0008032A0008032A00086120000888
:10005000032A0008032A0008032A0008032A0008CC
:10006000032A0008032A0008032A0008032A0008BC
:10007000032A0008032A0008032A0008032A0008AC
:10008000032A0008032A0008032A0008032A00089C
:10009000032A0008032A0008032A0008FF27000893
:1000A000032A0008032A0008032A0008032A00087C
:1000B000A9090008750A0008032A0008032A000895
:1000C000032A0008032A0008032A0008032A00085C
:1000D000032A0008BD290008032A0008032A000893
:1000E000032A0008032A0008032A0008DFF810D0BA
:1000F00005F0A8FB0048004751010008AFF300805D
:10010000F010002010B50A220021084601F019FA6B
:100110000B220021102001F014FA0223FEA200217C
:10012000202001F094F90C220221002001F009FAAC
:100130000D220221102001F004FA0E2204210020D9
:1001400001F0FFF90F220421102001F0FAF910BD8F
:1001500088B0F44B0FCBCDE90623CDE90401002490
:1001600000250026A1460120EF49087002F060FB3F
:100170004FF4806002F04AFC00F0CCFB01F0C0F8C4
:10018000322002F092FB01F047F9002202212020E8
:1001900001F0D7F901220221302001F0D2F9022228
:1001A0001146402001F0CDF903220221502001F038
:1001B000C8F900F025FF11E00223DCA20021084667
:1001C00001F045F9C82002F070FB0223DBA20021F8
:1001D000084601F03CF9C82002F067FB00F010FF70
:1001E0000028E9D111E00223D8A20021084601F03D
:1001F0002EF9C82002F059FB0223D0A200210846A4
:1002000001F025F9C82002F050FB01F025FD00287F
:10021000E9D1642002F049FB00BF01F038FD40F253
:1002200052318842F9D041F2883002F03EFB01F0B1
:10023000F3F800F041FD472140F2CF7000F0DEFB03
:100240004FF4165002F06DFB41F61F41C72000F03D
:100250007DFB01F0D1FF02F09DFA01F0DDF8FFF720
:1002600051FF082202A9BD4802F008FA9DF80800D3
:10027000303842F2107148439DF80910303901EBD3
:100280004102C2EBC11100EBC1019DF80A003038F8
:1002900000EBC00202EB001001EB80019DF80B00A7
:1002A000303800EB800001EB40019DF80C00303845
:1002B0000844AB49088001F073FEFDE1A9480078CD
:1002C000012832D10020A7490870002201218807A7
:1002D00004F001F800220121A34803F0FCFF01F023
:1002E000D6FC814601221146900703F0F4FF01225B
:1002F00011469D4803F0EFFF0121880703F0D0FF6E
:100300009A480078012810D1002098490870984830
:100310000068282807DD96480068A02803DA012530
:100320009348067801E000250026924800780128CD
:1003300004D100208F49087001F06AF9142002F0FE
:10034000B4FA87480088844264D0854804880088CD
:1003500042F2107190FBF1F030308749087080480C
:10036000008842F2107190FBF1F201FB12004FF491
:100370007A7190FBF1F030307F49487078480088FE
:1003800042F2107190FBF1F201FB12004FF47A710E
:1003900090FBF1F201FB1200642190FBF1F0303090
:1003A000754988706E48008842F2107190FBF1F236
:1003B00001FB12004FF47A7190FBF1F201FB120085
:1003C000642190FBF1F201FB12000A2190FBF1F095
:1003D00030306949C8706248008842F2107190FB61
:1003E000F1F201FB12004FF47A7190FBF1F201FB84
:1003F0001200642190FBF1F201FB12000A2190FB34
:10040000F1F201FB120030305B49087108225348B9
:1004100002F045F959480078002879D157484078CA
:10042000002875D15548807838B154488078012823
:1004300003D05248807802286AD1002048490880B9
:100440000846008842F2107190FBF1F030304A49C2
:1004500008704348008842F2107190FBF1F201FBF2
:1004600012004FF47A7190FBF1F03030424948703D
:100470003B48008842F2107190FBF1F201FB120040
:100480004FF47A7190FBF1F201FB1200642190FBB2
:10049000F1F03030384988703148008842F21071EC
:1004A00090FBF1F201FB12004FF47A7190FBF1F234
:1004B00001FB1200642190FBF1F201FB12000A2102
:1004C00090FBF1F030302C49C8702548008842F28A
:1004D000107190FBF1F201FB12004FF47A7190FB66
:1004E000F1F201FB1200642190FBF1F201FB12001A
:1004F0000A2190FBF1F201FB120030301E49087115
:100500000822164802F0CBF84FF4FA7002F0CDF949
:1005100001F083FE34E000003A2D2D2D722F6D691D
:100520006E000000FC6100087C0800204144584C2B
:10053000333435204572726F720000002020202075
:10054000202020202020202020000000445331388B
:10055000423230204572726F7200000000F40008D1
:100560007A0800202400002000040040350000200C
:10057000280000202808002000000020E4080020B7
:100580004FF480514D4802F0A2FBA8B900BF4FF4D0
:1005900080514A4802F09BFB0028F8D000F03CFF55
:1005A0004748007818B901204549087004E0002048
:1005B00043490870FFF7A6FD4FF480413F4802F021
:1005C00086FBA8B900BF4FF480413C4802F07FFB96
:1005D0000028F8D000203B49088030203A490870B4
:1005E00048708870C87008710822384802F057F8BF
:1005F00037480078012814D1002035490870484652
:1006000004F0B4FE8346334904F000FE824604F051
:10061000D5FE3246CDE900012A4801882EA005F01A
:100620006FF92748007810B1012844D140E03148E3
:10063000007801280BD1234802882FA104A805F0D7
:100640006FF9022304AA1946202000F000FF484653
:1006500004F08CFE83461F4904F0D8FD824604F066
:10066000ADFE07463A460B4625A104A805F058F909
:10067000022304AA0421202000F0E9FE012D0BD161
:10068000324622A104A805F04BF9022304AA002156
:10069000202000F0DCFE0AE0AFF2841104A805F08F
:1006A0003FF9022304AA0021202000F0D0FE02E03E
:1006B00001F0E3FC00BF00BF00E60000000C0140B9
:1006C000080000207A0800200000002000F4000844
:1006D0002500002000002041537465703A253564E0
:1006E00020483A25336420543A25342E3166200DB3
:1006F0000A0000007C0800203A252D356420000007
:100700003A25342E31662020202000003A2533641B
:10071000722F6D696E000000704700BFFEE700BFDA
:10072000FEE700BFFEE700BFFEE770477047704777
:10073000704700000CB50020019000906C480068E4
:1007400040F480306A49086000BF6948006800F4DE
:10075000003000900198401C0190009818B9019851
:10076000B0F5A06FF1D16248006800F4003010B11C
:100770000120009001E0002000900098012843D162
:100780005C48006840F010005A490860084600685C
:1007900020F0030008600846006840F0020008608E
:1007A00053484068524948600846406848600846D7
:1007B000406840F4806048600846406820F47C103F
:1007C00048600846406840F4E81048600846006801
:1007D00040F08070086000BF4548006800F000707D
:1007E0000028F9D04248406820F0030040494860A2
:1007F0000846406840F00200486000BF3C4840683E
:1008000000F00C000828F9D10CBD10B5FFF792FFDD
:1008100010BD10B53648006840F00100344908604A
:100820000846406834490840314948600846006835
:10083000324908402E4908600846006820F48020AC
:1008400008600846406820F4FE0048604FF41F002E
:100850008860FFF7DAFF4FF000602949086010BD9B
:1008600010B5002100200022214B5B6803F00C0131
:1008700021B1042906D0082928D107E0214B224CB8
:10088000236027E01F4B204C236023E0184B5B685C
:1008900003F47010164B5B6803F48032022303EB01
:1008A000904022B9194B4343174C23600DE0104B85
:1008B0005B6803F4003323B1144B4343124C2360B1
:1008C00003E0104B4343104C236003E00D4B0E4CF0
:1008D000236000BF00BF064B5B68C3F303130C4CDF
:1008E000E15C094B1B68CB40074C236010BD000046
:1008F00000100240002002400000FFF8FFFFF6FE5B
:1009000008ED00E000127A001000002000093D0010
:100910001400002008B50121102002F001FC4FF462
:100920000050ADF8000010208DF8030003208DF872
:1009300002006946044802F037F94FF400510248BA
:1009400002F0DFF908BD0000001001407FB5054648
:100950000C460121084602F0F0FBADF80850ADF856
:1009600004400020ADF80A00ADF8060001A94FF0E0
:10097000804003F039F901221146900703F0ABFCE7
:100980001C208DF8000001208DF8010003208DF857
:10099000020001208DF80300684602F03CF80121B6
:1009A000880703F07DFC7FBD10B50121880703F0A7
:1009B00040FF10B30121880703F04CFF0120A84934
:1009C0000870A8480068401CA649086008460068EE
:1009D000642804D3002008600120A3490870A348BC
:1009E00001680068401CA14A10600A2905D3002054
:1009F0001146086001209E49087010BD7FB505466C
:100A00000C460121022002F098FBADF80850ADF829
:100A100004400020ADF80A00ADF8060001A9954891
:100A200003F0E2F82021934803F0B3FE012191483E
:100A300003F0FCFE012211468E4803F04CFC01211C
:100A40008C4803F02DFC1D208DF8000000208DF84F
:100A500001008DF8020001208DF80300684601F0C6
:100A6000DAFF0021022002F068FB0121022002F0DF
:100A700064FB7FBD70B5002401217E4803F0D9FEE0
:100A8000002870D07C4802F0D9FE0646C01706EB5D
:100A9000907080107949086079480068801C784916
:100AA00008600846006877490968401A7649086076
:100AB0007248006875490968884214DA7448006809
:100AC000052190FBF1F000EB40006F490968884276
:100AD00009DA6A4800686F490968884203DA67489A
:100AE00000686C4908606548006868490968884280
:100AF00009DD6248006868490968884203DD5F488B
:100B000000686549086060480068FA2863DD5B4852
:100B100000685E49096888425DDD60480078002809
:100B200059D15B480068052190FBF1F000EB4000D3
:100B30005549096888424EDA0120584908705048E2
:100B4000006850490968401A514908604C480068DB
:100B50004C4908605248007878B10020504908702C
:100B6000002400BF07E075E0494800684D4941F89E
:100B70002400601CC4B2092CF6DD4B48007830B16B
:100B800000204949087001204549087070BD0025C2
:100B900000240BE04349601C51F8200041F8240078
:100BA000084650F824000544601CC4B2082CF1DD4E
:100BB000374800683B4948620846406A05440A20B5
:100BC000B5FBF0F54EF66020B0FBF5F03749086054
:100BD000012037490870294800682C490968884273
:100BE0001EDA2E48007801281AD100202B490870FF
:100BF0002948006827490968401A2E490860086892
:100C000000EBD071234A126802EB61011F4A1160A8
:100C10001046006820490860104600681D490860B9
:100C20001948006840F6C411884213DD4FF4007083
:100C3000164908601849086016490860104800689D
:100C400010490860012018490870002014490870F4
:100C5000174908700121074803F0FCFD00BF95E724
:100C60002808002058000020250000205C000020FB
:100C70002400002000040040002401402C0000203B
:100C8000380000203C0000205000002048000020D8
:100C900030000020440000204000002034000020EC
:100CA00055000020BC08002054000020280000202F
:100CB000350000204C00002000B587B001214FF422
:100CC000017002F02DFA4FF4004002F08DF901207E
:100CD000ADF8040000208DF8070001A9334801F0A9
:100CE00063FF334802F084FC002002908DF80C0072
:100CF0008DF80D004FF40020049000200590012095
:100D00008DF8180002A92A4802F099FC0121284810
:100D100002F089FD072301220021254802F027FD6A
:100D20000121234802F0B7FC214802F0D6FC00BFA5
:100D30001F4802F0D7FC0028FAD11D4802F0DCFC65
:100D400000BF1B4802F0DDFC0028FAD107B000BD4F
:100D500010B50446072301222146154802F007FD7D
:100D60000121134802F0D7FC00BF0221104802F015
:100D700043FE0028F9D00E4802F060FD10BD2DE9B9
:100D8000F04107460C460025002608E03846FFF7EC
:100D9000DFFF0544052001F088FD701CC6B2A642A5
:100DA000F4DBB5FBF4F080B2BDE8F081000801404F
:100DB0000024014008B50121082002F0B1F94FF4E8
:100DC0000060ADF8000048208DF8030003208DF886
:100DD00002006946B54801F0E7FE08BD08B50121EB
:100DE000082002F09DF94FF40060ADF800001020DB
:100DF0008DF8030003208DF802006946AB4801F02E
:100E0000D3FE08BD08B50121082002F089F94FF48E
:100E10004060ADF8000010208DF8030003208DF82D
:100E200002006946A14801F0BFFE4FF440619F48AF
:100E300001F067FF08BD10B5FFF7D0FF01209C4906
:100E400008609C49C1F8A801052001F00AFD0020B6
:100E500097490860052001F004FD00209549C1F87C
:100E6000A80110BD10B5FFF7B9FF00209049086038
:100E700001209049C1F8A801052001F0F2FC0120F1
:100E80008B490860052001F0ECFC10BD10B504464C
:100E9000FFF7A4FF8648046001208649C1F8A80135
:100EA000052001F0DEFC00208149091F08600520B3
:100EB00001F0D7FC10BD10B5FFF77CFF01207C4985
:100EC000091F0860022001F0CCFC01207949C1F81B
:100ED000A801C102754801F0FAFE012802D1764945
:100EE000087002E000207449087000207049091F52
:100EF0000860052001F0B5FCFFF770FF6E48007830
:100F000010BD70B50446FFF769FF00251EE00520FF
:100F100001F0A7FC04F0800018B1012064490860CA
:100F200002E0002062490860052001F09AFC0120DF
:100F30005F49091F0860052001F093FC00205D490E
:100F4000C1F8A8016006040E681CC5B2082DDEDBDE
:100F5000FFF7B1FF70BD70B50024FFF72BFF002530
:100F600020E06006040E052001F07BFC01205049C2
:100F7000091F0860C1024D4801F0A9FE012801D1F6
:100F8000012600E000260EB1601CC4B2052001F06D
:100F900068FC00204649091F0860052001F061FC3B
:100FA000681CC5B2082DDCDB204670BD70B5054657
:100FB0000C46FFF740FFA620FFF7A3FF2846FFF7E8
:100FC000A0FF2046FFF79DFFFFF74CFF70BD70B5F7
:100FD0000446FFF730FFA620FFF793FF2046FFF7F8
:100FE00090FFFFF728FFA720FFF78BFFFFF7B3FF66
:100FF00005460120FFF74AFFFFF734FF284670BD82
:1010000010B5FFF7FFFE0020FFF7E1FFE52825D12F
:1010100000212E20FFF7CAFF2B213120FFF7C6FF4A
:1010200009212C20FFF7C2FF08212D20FFF7BEFF6A
:1010300000212F20FFF7BAFF80212E20FFF7B6FFF7
:1010400000211E20FFF7B2FF00211F20FFF7AEFF97
:1010500000212020FFF7AAFF002010BD0120FCE79F
:1010600070B50546FFF7E7FEA620FFF74AFF3220DE
:10107000FFF747FFFFF7DFFEA720FFF742FF00243F
:101080000EE0FFF768FF28706D1C052C03D10120CE
:10109000FFF7FCFE02E00020FFF7F8FE601CC4B280
:1010A000062CEEDBFFF7DEFE70BD0000000C0140F9
:1010B000AC812142008021426600002008B5012158
:1010C000082002F02DF8C020ADF8000010208DF8A7
:1010D000030003208DF802006946F84801F064FD22
:1010E000C021F64801F00DFE08BDF448006820F06C
:1010F0007040F24908600846006840F040500860BF
:101100000120EF490860EF49C1F898010020EC493F
:101110000860EC49C1F898017047E848006820F081
:101120007040E64908600846006840F0405008609A
:101130000020E349091F0860E249C1F89C01012031
:10114000DF49091F0860DF49C1F89C01704700B5FD
:101150000022DA48006820F07040D849086008464C
:10116000006840F0004008600120D5490860D5497A
:10117000C1F8980107E0501CC2B2FA2A03DDFFF75C
:10118000CCFF012000BDCE48803800680028F2D195
:10119000CB49091F086000BFF4E70020C849091FB8
:1011A0000860C648006820F07040C44908600846DE
:1011B000006840F0405008600020C249C1F89C011E
:1011C0000120BF49091F08600020BE49C1F89801ED
:1011D00070470020BA49091F0860B848006820F02D
:1011E0007040B64908600846006840F0405008600A
:1011F0000120B449C1F89C01B149091F08600020D1
:10120000B049C1F898017047AC4A126822F07042A8
:10121000AA4B1A601A46126842F040521A60002225
:10122000A74B1B1F1A60002114E0C2091AB101224A
:10123000A34B1A6002E00022A14B1A604206100E76
:1012400001229F4B1B1F1A6000229E4BC3F898215E
:101250004A1CD1B20829E8DB704770B50546002466
:101260009648006820F0704094490860084600687D
:1012700040F00040086000260CE0022001F0F1FA86
:101280006006040E8E488038006808B1601CC4B245
:10129000701CC6B2082EF0DB15B9FFF79AFF01E00B
:1012A000FFF77BFF204670BD10B50446FFF71DFF1A
:1012B0007820FFF7A9FFFFF74AFF0020FFF7A4FF00
:1012C000FFF745FF2046FFF79FFFFFF740FFFFF7BF
:1012D00024FF10BD10B50446FFF707FF7820FFF785
:1012E00093FFFFF734FF4020FFF78EFFFFF72FFF3C
:1012F0002046FFF789FFFFF72AFFFFF70EFF10BD1B
:1013000010B5FFF7DBFE642001F0CFFAAE20FFF747
:10131000CBFF2020FFF7C8FF1020FFF7C5FFB0204C
:10132000FFF7C2FFC820FFF7BFFF0020FFF7BCFF99
:101330001020FFF7B9FF4020FFF7B6FF8120FFF72D
:10134000B3FFFF20FFF7B0FFA120FFF7ADFFA620FE
:10135000FFF7AAFFA820FFF7A7FF3F20FFF7A4FF92
:10136000A420FFF7A1FFD320FFF79EFF0020FFF787
:101370009BFFD520FFF798FFF020FFF795FFD920BE
:10138000FFF792FF2220FFF78FFFDA20FFF78CFF95
:101390001220FFF789FFDB20FFF786FF2020FFF7F1
:1013A00083FF8D20FFF780FF1420FFF77DFFAF2024
:1013B000FFF77AFF10BD30B504460D4605F1B001C8
:1013C000C8B2FFF771FF102141EA1410FFF76CFF5C
:1013D00004F00F0141F00100FFF766FF30BD70B56A
:1013E0000646002415E004F1B001C8B2FFF75CFF27
:1013F0000020FFF759FF1020FFF756FF002504E0FB
:101400003046FFF767FF681CC5B2802DF8DB601C13
:10141000C4B2082CE7DB70BD00B50020FFF7DFFF8A
:1014200000BD00B58D20FFF73FFF1420FFF73CFF04
:10143000AF20FFF739FF00BD00B58D20FFF734FF67
:101440001020FFF731FFAE20FFF72EFF00BD2DE982
:10145000F0470646894617469A464FF00008002492
:101460000025BAF1010F03D0BAF1020F66D12DE0C9
:1014700020E0785D203800F0FF087E2E04DD002695
:1014800009F1010000F0FF0949463046FFF793FFDC
:10149000002409E008EB48010B4A02EB4101085D1A
:1014A000FFF718FF601CC4B2062CF3DBB01DC6B2F8
:1014B000681CC5B2785D0028DBD13FE0000C01401C
:1014C0009C812142008021420C62000832E0785D5C
:1014D000203800F0FF08782E04DD002609F1010015
:1014E00000F0FF0949463046FFF765FF002407E09A
:1014F00004EB0811444A505CFFF7ECFE601CC4B2D8
:10150000082CF5DB09F10100C1B23046FFF753FFAB
:10151000002408E004EB081108313B4A505CFFF757
:10152000D9FE601CC4B2082CF4DB06F10800C6B278
:10153000681CC5B2785D0028C9D100BF00BFBDE8F6
:10154000F0872DE9F04180460E46174600247D01C4
:1015500031464046FFF72FFF00BF06E02B49485DAC
:10156000FFF7B8FE6D1C601CC4B2102CF6DB701CBB
:10157000C1B24046FFF71FFF002406E02349485D43
:10158000FFF7A8FE6D1C601CC4B2102CF6DBBDE892
:10159000F0812DE9F04F06460F4690461C46DDF8D7
:1015A00024A04FF0000BE11704EB5171C910A4EB1C
:1015B000C10131B92046E11704EB5171C1F3C705F0
:1015C00006E02046E11704EB5171C910491CCDB269
:1015D0003D4614E029463046FFF7EDFEB1460AE0ED
:1015E00059460BF1010B1AF80100FFF773FE09F1E0
:1015F000010000F0FF09C145F2DB681CC5B2A5423D
:10160000E8DBBDE8F08F00003464000867000020CC
:10161000F0B587B0FE48FFF723FDFD480078FC4990
:10162000497800EB012005B2F9488078F849C9787B
:1016300000EB012006B2F6480079F549497900EB44
:10164000012007B200245FE0F24830F81400F249AC
:1016500021F81400F14830F81400EE4921F8140084
:10166000EF4830F81400ED4921F81400E84A12F868
:1016700014206100491CE64B595C02EB012108B2C1
:10168000002801DB014600E04142E54A22F814103F
:1016900033462A46E3A102A8009704F041F9E04945
:1016A00031F81410DD4A32F814201144D94A32F8C6
:1016B00014201144D84A32F814208818C11700EBBE
:1016C0009171C1F38F01DB4A22F81410104630F8F3
:1016D0001400D94931F81410884205DD104630F85D
:1016E0001400D54921F81400D24830F81400D34929
:1016F00031F81410884205DACE4830F81400CF498A
:1017000021F81400601CC4B2022C9DDDCC48007886
:10171000401CCB49087008460078322850DB002076
:10172000087000244AE0C44830F81400C34931F876
:101730001410401AC34921F81400BF4931F814109D
:10174000BE4A32F81420881800EBD071C1F34F0163
:10175000BD4A22F814100020B74921F814004FF4B4
:101760008060B64921F814000020B8490855B548F2
:1017700030F81400FA2809DBB24830F8140032219E
:1017800090FBF1F0B24921F8140015E0AD4830F8B3
:101790001400642809DBAB4830F81400FA2804DA96
:1017A0000320AB4921F8140006E00220A84921F8E3
:1017B00014000120A5490855601CC4B2022CB2DDFA
:1017C00000243CE0A34830F81400A34921F8140099
:1017D000984830F814009F4931F81410884212DB01
:1017E000944830F814009B4931F81410401A984975
:1017F00031F81410884220DB8E4830F814009549E7
:1018000021F8140019E08B4830F81400914931F8A0
:101810001410884211DA8F4830F81400854931F8E5
:101820001410401A8A4931F81410884205DB8148A7
:1018300030F81400874921F81400601CC4B2022C4F
:10184000C0DD804800887F49498888424EDB7D485A
:1018500000887C498988884248DB7F4800887A492B
:101860000988884241DB7B4800887749098888429B
:101870003BDA76480078002837D1784800880A2873
:1018800027DD76480088642823DA75480088401CE4
:10189000734908807348007873490870734800786A
:1018A00070490870724800787049087001207049CA
:1018B00008706D480078A8B16A48007890B16B480C
:1018C000007878B10846007860B101206949087055
:1018D00008E0002064490870624908706349087094
:1018E0006349087000205D490880E3E0554840885E
:1018F0005449098888424EDB5248408851498988BA
:10190000884248DB544840884F4949888842ECDB8C
:10191000504840884C4949888842E6DA4B4840782C
:101920000028E2D14D4800880A2827DD4B4800886E
:10193000642823DA4A480088401C494908804948FD
:101940000078494908704948007846490870484875
:1019500000784649087001204549087042480078DF
:10196000A8B14048007890B14048007878B1084666
:10197000007860B101203F49087008E000203A4932
:1019800008703849087039490870394908700020D2
:10199000324908808EE02B4880882A49498888424D
:1019A0006ADB284880882749098888427FDB2A48E3
:1019B00080882549898888427CDB2648808822499E
:1019C0008988884276DA21488078F8B923480088E7
:1019D0000A285FDD2148008864285BDA20480088F7
:1019E000401C1F4908801F4800781F4908701F4885
:1019F00000781C4908701E4800781C4908700120B6
:101A00001B4908701848007808B136E052E04AE0F7
:101A100060000020380800203E0800203208002026
:101A20002C080020253464202534642020253564CA
:101A300020000000440800204A0800205008002030
:101A4000980800205C080020560800202908002083
:101A5000620800206E08002068080020740800203A
:101A60007A080020780800207908002077080020F4
:101A7000760800207C08002019E00F48007890B11B
:101A80000E48007878B10846007860B101200C4912
:101A9000087008E000200B490870074908700749E2
:101AA00008700949087000200849088002E00020F9
:101AB0000349087007B0F0BD7808002077080020BF
:101AC0007C08002079080020760800207408002097
:101AD00008B50121042001F023FB4020ADF80000EF
:101AE00048208DF8030003208DF8020069468A48DB
:101AF00001F05AF808BD08B50121042001F010FBDF
:101B00004020ADF8000010208DF8030003208DF870
:101B100002006946804801F047F808BD10B5FFF79C
:101B2000EAFF00207D49086040F2EE2000F099FEB7
:101B300001207B49C1F898010F2000F092FE10BDF2
:101B400010B50024FFF7C4FF04E0601CC4B20120FC
:101B500000F087FE71488038006808B1C82CF4DBBB
:101B6000C82C01DB012010BD002404E0601CC4B2BD
:101B7000012000F076FE69488038006808B9F02C32
:101B8000F4DBF02C01DB0120EDE70020EBE710B5E2
:101B9000FFF7B1FF002061490860022000F061FEFC
:101BA00001205F49C1F89801FFF792FF0C2000F077
:101BB00058FE5A488038006808B1012400E000242B
:101BC000322000F04EFE204610BD70B500260125E3
:101BD00008E0FFF7DCFF0446E00140EA6600C6B219
:101BE000681CC5B2082DF4DD304670BD70B50446E2
:101BF000FFF781FF012520E004F0010664106EB1BB
:101C0000002046490860022000F02BFE01204449D4
:101C1000C1F898013C2000F024FE0CE000203F4970
:101C200008603C2000F01DFE01203D49C1F89801EC
:101C3000022000F016FE681CC5B2082DDCDD70BD68
:101C400010B5FFF76BFFFFF77BFFCC20FFF7CEFF50
:101C50004420FFF7CBFF10BD08B50121042001F09F
:101C60005FFA4020ADF8000010208DF8030003203B
:101C70008DF802006946284800F096FF402126486A
:101C800001F03FF8FFF74AFFFFF75AFF08BD2DE9C3
:101C9000F84FFFF7D5FFFFF741FFFFF751FFCC20CB
:101CA000FFF7A4FFBE20FFF7A1FFFFF78EFF8346DB
:101CB000FFF78BFF0446072C08DDE043C4B26FEA50
:101CC0000B0000F0FF0B4FF0000A01E04FF0010A9B
:101CD000A1464FEA09200FFA80F909EB0B000FFA31
:101CE00080F9484603F042FB009003F067FB07468B
:101CF00000220C4B03F0C8FA054603F040FB0FFA34
:101D000080F9BAF1000F02D04846BDE8F88FC9F15A
:101D1000000000B2F9E700000008014098012142EC
:101D2000000021420000E43F08B503208DF80000C8
:101D300001208DF8010000208DF8020001208DF8AF
:101D40000300684600F067FE08BDF0B503460C4688
:101D50001546642093FBF0F0C6B2642093FBF0F7C5
:101D600000FB1730C1B2132E02DD01F16400C1B2D5
:101D70000846CF1701EB977701EBA707BAB2072008
:101D800092FBF0F700FB172082B25719601EDFF8B4
:101D900028C41CF80000384482B2CF1701EB9777B3
:101DA000BF10A1EB87071FB9032C01DA501E82B2C6
:101DB000072092FBF0F700FB1720C0B2F0BD0146F0
:101DC000CA1701EB92729210A1EB820292B96420C1
:101DD00091FBF0F200FB121050B94FF4C87091FB68
:101DE000F0F200FB121008B9012070470020FCE758
:101DF0000120FAE70020F8E770B50026002400254E
:101E000002F04CFD0646ED48B6FBF0F4EC480088C5
:101E1000A0423CD0EA490C8040F2B27510E028465E
:101E2000FFF7CDFF40B1B4F5B77F02D3A4F5B77487
:101E300004E0681C85B206E0A4F26D14681C85B24B
:101E4000B4F5B67FEBD800BFDE488580002516E0EC
:101E5000DC498888FFF7B3FF30B1012D04D11D2C78
:101E600001D31D3C09E00CE0D748405DA04203D8F7
:101E7000D548405D241A00E003E0681C85B21C2CA4
:101E8000E6D200BF681CCF498871601CC871CB487E
:101E9000B6FBF0F100FB11644FF46160B4FBF0F0AD
:101EA000C84908704FF46160B4FBF0F100FB1140C9
:101EB0003C21B0FBF1F0C34948704FF46160B4FBC2
:101EC000F0F100FB11403C21B0FBF1F201FB1200EC
:101ED000BC4988700B46DA7999799888FFF735FF05
:101EE000B8490872002070BD2DE9F05F06460F4624
:101EF00090469946DDE90AAB002440F2B270864272
:101F000003DB40F63300864202DD0120BDE8F09F8E
:101F100040F2B2750AE02846FFF751FF10B1AB4816
:101F2000044401E0AA480444681C85B2B542F2DBCF
:101F3000781EC7B2002510E0A348405D40F2A321FF
:101F4000484304EBC0143046FFF739FF18B1012DA8
:101F500001D19A480444681C85B2BD42ECDBA8F16B
:101F6000010040F2A321484304EBC014C9EB49101F
:101F7000C0EB092004EB0014CAEB0A1004EB800448
:101F80005C4401214FF0C05001F0D7F8012002F06D
:101F900014FD204602F08BFC02F0BCFC0020B5E7EB
:101FA0001CB5002401214FF0C05001F0C6F80120FB
:101FB00002F003FD042002F090FD45F65A2188420C
:101FC00040D002F055FD012001F017F804E0601C3C
:101FD000C4B20A2000F069FC412000F076FF08B985
:101FE000FA2CF4DBFA2C01DB01201CBD4FF48070CD
:101FF00001F01FF8012001F022F802F08BFC02F042
:1020000092FC0121084602F029FC02F083FC02F058
:1020100032FC47F6FF7002F057FC02F07BFC3720E1
:1020200021210D231C22CDE90010022140F2E37092
:10203000FFF75AFF02F028FC45F65A21042002F06F
:1020400040FD07E002F06FFC0121084602F006FCAB
:1020500002F060FCFFF768FEFFF7CEFE0020C4E749
:1020600010B5012002F084FC08B1FFF7C5FE012085
:1020700002F08EFC02F04EFC10BD00B589B0514854
:10208000807854490978884270D04E488078514908
:102090000870122202210020FFF753FA13220221B6
:1020A0001020FFF74EFA102204210020FFF749FA12
:1020B000112204211020FFF744FA4248C079009011
:1020C00040488379828844A105A803F029FC0223B3
:1020D00005AA19462020FFF7BAF93A4880780090FF
:1020E00038484378027840A101A803F019FC022384
:1020F00001AA04212020FFF7AAF9012000F0D5FB56
:102100003048007A072853D2DFE800F0040F1A2580
:10211000313C4700142206210020FFF712FA152255
:1021200006211020FFF70DFA42E0142206210020BC
:10213000FFF707FA162206211020FFF702FA37E010
:10214000142206210020FFF7FCF917220621102097
:10215000FFF7F7F92CE0142206210020FFF7F1F930
:10216000182206211020FFF7ECF921E021E01422CB
:1021700006210020FFF7E5F9192206211020FFF7BC
:10218000E0F915E0142206210020FFF7DAF91A22FF
:1021900006211020FFF7D5F90AE0142206210020BD
:1021A000FFF7CFF91B2206211020FFF7CAF900BF65
:1021B00000BF09B000BD0000246A00088051010082
:1021C0009A080020E4080020306A00080085E20137
:1021D0008033E1019C0800203A25642D25303264CB
:1021E0002D253032640000003A253032643A253023
:1021F00032643A253032640008B50121082000F02D
:102200008FFF4FF47040ADF8000048208DF80300B8
:102210006946ED4800F0C8FC08BD2DE9F04387B0E1
:102220000025A946E948B0F804908679C479077872
:1022300090F801804FF40051E34800F048FD002879
:102240007DD100BF4FF40051DF4800F040FD002871
:10225000F8D0FFF7E1F81C2200213020FFF771F9D8
:102260001D2200214020FFF76CF9122202210020DC
:10227000FFF767F9132202211020FFF762F91022FD
:1022800004210020FFF75DF9112204211020FFF73F
:1022900058F994E14FF40051CB4800F018FD60B9B3
:1022A00000BF4FF40051C84800F011FD0028F8D0DD
:1022B000681CC5B2092D00DD0025002D3AD14FF470
:1022C0008041C14800F003FD48B900BF4FF4804190
:1022D000BD4800F0FCFC0028F8D009F101094FF4DA
:1022E0000041B94800F0F3FC48B900BF4FF4004189
:1022F000B54800F0ECFC0028F8D0A9F101093346FC
:102300004A46B3A102A8009403F00AFB022302AAE2
:1023100019462020FFF79BF8002043463A46B0A11B
:10232000009002A803F0FCFA022302AA0421202054
:10233000FFF78DF8012D40D1A903A34800E040E14B
:1023400000F0C5FC60B900BF4FF480419E4800F02A
:10235000BEFC0028F8D0701CC6B20C2E00DD012691
:102360004FF40041984800F0B2FC58B900BF4FF458
:102370000041954800F0ABFC0028F8D0012E01DDAB
:10238000701EC6B233464A4699A102A8009403F0D3
:10239000C7FA022302AA19462020FFF758F80020A6
:1023A00043463A468EA1009002A803F0B9FA0223F0
:1023B00002AA04212020FFF74AF8022D3ED169032A
:1023C000814800F084FC60B900BF4FF480417E4832
:1023D00000F07DFC0028F8D0601CC4B21F2C00DD8A
:1023E00001244FF40041784800F071FC58B900BF57
:1023F0004FF40041744800F06AFC0028F8D0012C2A
:1024000001DD601EC4B233464A467DA102A8009495
:1024100003F086FA022302AA19462020FFF717F8D4
:10242000002043463A466EA1009002A803F078FAD5
:10243000022302AA04212020FFF709F8032D3FD12F
:102440004FF48041604800F042FC60B900BF4FF497
:1024500080415D4800F03BFC0028F8D0781CC7B2F2
:10246000172F00DD00274FF40041574800F02FFCE4
:1024700058B900BF4FF40041534800F028FC002831
:10248000F8D0002F01DD781EC7B233464A4660A15E
:1024900002A8009403F044FA022302AA194620205D
:1024A000FEF7D5FF002043463A465DA1009002A802
:1024B00003F036FA022302AA04212020FEF7C7FF08
:1024C000042D45D12903404800F001FC80B900BF2C
:1024D0004FF480413C4800F0FAFB0028F8D008F1A6
:1024E000010000F0FF08B8F13B0F01DD4FF00008DC
:1024F0004FF40041344800F0EAFB70B900BF4FF4DC
:102500000041314800F0E3FB0028F8D0B8F1000F9B
:1025100003DDA8F1010000F0FF0833464A463CA164
:1025200002A8009403F0FCF9022302AA1946202015
:10253000FEF78DFF002043463A463DA1009002A8D9
:1025400003F0EEF9022302AA04212020FEF77FFF08
:10255000052D34D10020CDE900801FFA89F03B46DB
:1025600022463146FFF7C0FC002035490870FEF7CF
:1025700053FF0A2200210846FEF7E3FF0B22002149
:102580001020FEF7DEFF02232EA200212020FEF7FE
:102590005EFF0C2202210020FEF7D3FF0D22022154
:1025A0001020FEF7CEFF0E2204210020FEF7C9FF07
:1025B0000F2204211020FEF7C4FF002500E069E689
:1025C00000BF07B0BDE8F083000C0140E408002024
:1025D0003E25642D253032642D2530326400000004
:1025E0003A253032643A253032643A25303264007C
:1025F0003A25643E253032642D25303264000000D7
:102600003A25642D253032643E25303264000000C6
:102610003A25642D253032642D25303264000000C7
:102620003E253032643A253032643A253032640037
:102630003A253032643E253032643A253032640027
:10264000080000203A2D2D2D722F6D696E000000BC
:102650000146088870472DE9F04105460E461746A9
:10266000002407E036F81410284602F0CAFBAD1C1F
:10267000601C84B2BC42F5DBBDE8F08130B5034696
:102680000C461546002207E01846FFF7E1FF24F844
:1026900012009B1C501C82B2AA42F5DB30BD2DE912
:1026A000F05F80468A461746B8F1006F02D337487C
:1026B000804501D3BDE8F09F02F05BFAA8F1006B02
:1026C0004FEA9B25CBF34809C9F50074A74200DC0B
:1026D0003C464DE04FF0006101EB85208A142C4907
:1026E000FFF7CCFF00260BE009EB0600284931F884
:1026F00010004FF6FF71884200D003E0701C86B2D4
:10270000A642F1DB00BFA6421BDA4FF0006101EBED
:10271000852002F073FA002608E03AF8160006EB6E
:1027200009011B4A22F81100701C86B2A642F4DB94
:102730004FF0006101EB85208A141549FFF78BFFEC
:1027400004E0224651464046FFF785FFA74200D1EC
:102750000FE06D1C4FF000090AEB440AA044381B3F
:1027600087B2B7F5007F02DD4FF4007400E03C460D
:10277000B0E700BF02F009FA00BF9BE713B50446BB
:10278000012201A92046FFF78AFF1CBD00000208B4
:10279000EE0800201FB50121042000F0C1FC8020BC
:1027A000ADF8000048208DF8030069461E4800F08F
:1027B000FBF90121084600F0B3FC0721002000F0DE
:1027C00009FB8020029000208DF80C000C208DF871
:1027D0000D0001208DF80E0002A802F097FC1720D2
:1027E0008DF8040002208DF8050003208DF8060006
:1027F00001208DF8070001A800F00DF91FBD10B5EC
:10280000802002F0E9FC70B13020FEF7E0FB00F020
:102810008000802804D105480088401C03490880B6
:10282000802002F0EAFC10BD00080140740800207E
:1028300010B56FF0040000F038F92E4800682E49FA
:10284000B0FBF1F02D4908700846007800EB40011C
:10285000C1EBC0104FF6FF7101EAC00028490880A3
:1028600010BD0146254A12784A434FF0E0235A61D1
:1028700000229A611A46126942F001021A6100BFF1
:102880004FF0E022106900F001021AB100F480322A
:10289000002AF5D04FF0E022126922F001024FF039
:1028A000E0231A6100229A6170470146144A128897
:1028B0004A434FF0E0235A6100229A611A46126996
:1028C00042F001021A6100BF4FF0E022106900F0EF
:1028D00001021AB100F48032002AF5D04FF0E02254
:1028E000126922F001024FF0E0231A6100229A617E
:1028F000704700001000002000127A009E0800209F
:10290000A0080020014600BF704700BF344A12886B
:1029100002F04002002AF9D0C2B2314B1B1D1A80CE
:10292000704710B586B00446012144F2040000F05F
:10293000F7FB4FF40070ADF8140003208DF816007B
:1029400018208DF8170005A9264800F02DF94FF43E
:102950008060ADF8140004208DF8170005A9214807
:1029600000F022F925208DF8000002208DF80100EA
:1029700003208DF8020001208DF80300684600F066
:102980004AF801940020ADF80800ADF80A00ADF84F
:102990000C00ADF810000C20ADF80E0001A9104895
:1029A00000F065FC012240F225510D4800F0F7FCD3
:1029B00001210B4800F0E7FC06B010BD10B5002463
:1029C00040F22551064800F0CFFD38B120210448DF
:1029D00000F0C1FD024800F047FDC4B210BD000088
:1029E000003801400008014006488047064800477B
:1029F000FEE7FEE7FEE7FEE7FEE7FEE7FEE7FEE7AF
:102A0000FEE7FEE713080008ED0000083149014326
:102A1000314A1160704770B5002100230F22C4783D
:102A200004B32D4C246804F4E064C4F5E064210A86
:102A3000C1F10403CA40447804FA03F184781440D5
:102A400021430901254C0678A155047804F01F059F
:102A50000124AC4005786D11AD0005F1E025C5F805
:102A6000004109E0047804F01F050124AC401C4D2E
:102A70000678761145F8264070BD1A4A0A4002438E
:102A8000154B1B1F1A60704739B1134A121D12688B
:102A90000243114B1B1D1A6006E00F4A121D1268FB
:102AA00082430D4B1B1D1A607047042808D14FF05C
:102AB000E021096941F004014FF0E022116107E0D3
:102AC0004FF0E021096921F004014FF0E02211618B
:102AD000704700000000FA050CED00E000E400E0A3
:102AE00080E100E080FFFF1F10B50446CC4884421F
:102AF00008D10121042000F02DFB0021042000F06A
:102B000029FB46E0C748844208D10121082000F093
:102B100021FB0021082000F01DFB3AE0C24884425E
:102B200008D10121102000F015FB0021102000F039
:102B300011FB2EE0BD48844208D10121202000F085
:102B400009FB0021202000F005FB22E0B848844268
:102B500008D10121402000F0FDFA0021402000F0C2
:102B6000F9FA16E0B348844208D10121802000F030
:102B7000F1FA0021802000F0EDFA0AE0AE4884422C
:102B800007D10121801500F0E5FA0021A01500F021
:102B9000E1FA10BD10B50121084600F0DBFA002172
:102BA000012000F0D7FA10BD2DE9F04102460025C2
:102BB0000026002000230024002791F803C00CF019
:102BC0000F0591F803C00CF0100CBCF1000F03D0FE
:102BD00091F802C04CEA050591F800C0BCF1000F65
:102BE00031D0146800202BE04FF0010C0CFA00F3F8
:102BF000B1F800C00CEA03069E4220D183004FF0DA
:102C00000F0C0CFA03F7BC4305FA03FC4CEA04046E
:102C100091F803C0BCF1280F06D14FF0010C0CFA5B
:102C200000FCC2F814C00AE091F803C0BCF1480FE0
:102C300005D14FF0010C0CFA00FCC2F810C0401C8A
:102C40000828D1D31460B1F800C0BCF1FF0F34DD07
:102C5000546800202EE000F1080C4FF0010808FA3B
:102C60000CF3B1F800C00CEA03069E4221D18300A8
:102C70004FF00F0C0CFA03F7BC4305FA03FC4CEAC7
:102C8000040491F803C0BCF1280F05D100F1080C31
:102C900008FA0CF8C2F8148091F803C0BCF1480F90
:102CA00007D100F1080C4FF0010808FA0CF8C2F83F
:102CB0001080401C0828CED35460BDE8F0814FF648
:102CC000FF710180022181700421C17070470246AA
:102CD000002093680B400BB1012000E000207047FA
:102CE0000146886880B2704702460020D3680B40D6
:102CF0000BB1012000E0002070470146C86880B297
:102D0000704701617047416170470AB1016100E09D
:102D100041617047C16070474FF480320A4382615D
:102D20008161826182698269704702460020434B5B
:102D300018684FF68073184040EA021008433F4B72
:102D4000186070473E49C8617047F0B50A460023D5
:102D500000240021002500F00046B6F1004F02D10A
:102D6000364EF16901E0354E7168C0F3034583B218
:102D700000F44016B6F5401F08D121F070612F4EC7
:102D8000766826F070662D4F7E6012E000F48016A3
:102D9000B6F5801F06D1032606FA05F4A14341F0DB
:102DA000706106E0460D360103FA06F6B14341F0C4
:102DB000706122B1460D360103FA06F6314300F088
:102DC0000046B6F1004F02D11C4EF16101E01B4EEE
:102DD0007160F0BD30B500228B071C0F0F2303FA82
:102DE00004F2164B08338C1053F824309343134CE1
:102DF00008348D1044F8253023468C1053F82430C5
:102E00008C07240F00FA04F423430C4C08348D1073
:102E100044F8253030BD0A49DC31086070470000B5
:102E200000080140000C0140001001400014014066
:102E300000180140001C014000200140000001403A
:102E400000002042DF48006840F00100DD490860D2
:102E500008464068DC490840DA494860084600688E
:102E6000DA490840D74908600846006820F4802005
:102E700008600846406820F4FE0048604FF41F00D8
:102E800088607047CF49096821F48031CD4A1160CC
:102E90001146096821F480211160B0F5803F03D00C
:102EA000B0F5802F0ED106E0C649096841F48031A3
:102EB000C44A116007E0C349096841F4A021C14A2E
:102EC000116000E000BF00BF704710B5014600224E
:102ED000002300204A11012A02D1BA4C236806E0DF
:102EE000022A02D1B74C236A01E0B64C636A01F0B2
:102EF0001F02012494401C400CB1012000E000207E
:102F000010BD38B5002000900024002500BF3120FE
:102F1000FFF7DBFF05460098401C00900098B0F5D5
:102F2000A06F01D0002DF2D03120FFF7CEFF08B105
:102F3000012400E00024204638BD01460020A14ABB
:102F4000106820F0F80040EAC10010607047A04906
:102F500008607047024600209A4B586820F47C10A5
:102F600042EA01031843974B586070479849086636
:102F7000704701460020934A506820F00300084340
:102F8000506070478F48406800F00C007047014661
:102F900000208C4A506820F0F000084350607047D1
:102FA00001460020874A506820F4E06008435060E2
:102FB000704701460020834A506820F4605040EA80
:102FC000C1005060704729B17E4A527A02437D4B5E
:102FD0005A7204E07B4A527A82437A4B5A727047A3
:102FE0007B49D8310860704701460020754A506817
:102FF00020F440400843506070470021714A20325D
:103000001170704A82F82010012802D004280AD1D9
:1030100004E001216B4A2032117005E00521694A64
:103020002032117000E000BF00BF7047694908609E
:1030300070476449096A0143624A116270476549F1
:1030400044390860704730B5002100220024002375
:103050005C4D6D6805F00C0121B1042905D00829EB
:1030600023D105E05C4D056022E05B4D05601FE06B
:10307000544D6D6805F47012524D6D6805F480343E
:10308000022505EB92421CB9544D554305600BE0F7
:103090004C4D6D6805F400351DB1504D554305602C
:1030A00002E04D4D5543056002E04B4D056000BF09
:1030B00000BF444D6D6805F0F0010909484D6B5C97
:1030C0000568DD4045603F4D6D6805F4E061090A23
:1030D000434D6B5C4568DD4085603A4D6D6805F495
:1030E0006051C90A3E4D6B5C4568DD40C560354D99
:1030F0006D6805F44041890B3A4D6B5CC568B5FBC2
:10310000F3F5056130BD29B12E4A526902432D4BBA
:103110005A6104E02B4A526982432A4B5A61704734
:1031200029B1284A92690243264B9A6104E0254A54
:1031300092698243234B9A61704729B1214AD2692F
:103140000243204BDA6104E01E4AD26982431D4BE0
:10315000DA61704729B11B4AD2680243194BDA6021
:1031600004E0184AD2688243164BDA60704729B1EE
:10317000144A12690243134B1A6104E0114A12699E
:103180008243104B1A6170471249403908607047FA
:103190000F49C86470470B49C87170470948406AB5
:1031A00040F0807007494862704701460020054A98
:1031B00092680A400AB1012000E0002070470149EE
:1031C00088727047001002400000FFF8FFFFF6FE13
:1031D000000042428004424200127A0000093D0091
:1031E000A8080020B808002010B50446FB48844217
:1031F00009D101218803FFF7ADFF00214FF4804082
:10320000FFF7A8FF32E0F648844209D101214804C3
:10321000FFF7ADFF00214FF40030FFF7A8FF25E0D6
:10322000F048844209D101218804FFF7A0FF002162
:103230004FF48020FFF79BFF18E0EB48844209D150
:103240000121C804FFF793FF00214FF40020FFF78E
:103250008EFF0BE0E548844208D101210805FFF705
:1032600086FF00214FF48010FFF781FF10BD2DE98C
:10327000F04786B005460E460024A24600BFA14690
:103280000027B08900B100BF2F462C8A4CF6FF7092
:103290000440F08804432C82AC894EF6F3100440BD
:1032A000B08831890843718908430443AC81AC8AF2
:1032B0004FF6FF400440B0890443AC8201A8FFF7F9
:1032C000C2FEC648874202D1DDF810A001E0DDF859
:1032D0000CA0A88900F4004040B10AEBCA0000EB42
:1032E0000A1031684900B0FBF1F807E00AEBCA00A8
:1032F00000EB0A1031688900B0FBF1F86420B8FBDC
:10330000F0F004012009642101FB1089A88900F470
:10331000004040B1322000EBC900B0FBF1F000F0FA
:103320000700044308E0322000EB09106421B0FBE1
:10333000F1F000F00F0004432C8106B0BDE8F087E7
:103340004FF41651016000218180C18001810C2160
:10335000418100218181704710B502460020108A0A
:103360004FF2FF0318400B884C8823438C8823437B
:10337000CC8823431843108210BD00210180418076
:103380008180C180704721B1828942F400528281DC
:1033900004E082894DF6FF731A4082817047F0B5D0
:1033A0000346002400260025002040F66A17B94293
:1033B00000D100BF1846C1F3421401F01F060127D7
:1033C00007FA06F5012C01D10C3004E0022C01D1E2
:1033D000103000E014301AB107682F43076002E094
:1033E0000768AF430760F0BD1AB1838A0B4383823D
:1033F00002E0838A8B4383827047028A4FF6F07320
:103400001A400282028A0A430282704782894FF27E
:10341000FF731A40828182890A438281704721B1F9
:10342000828942F00202828104E082894FF6FD73B4
:103430001A4082817047028A4FF6DF731A40028277
:10344000028A0A430282704721B1028A42F4804212
:10345000028204E0028A4BF6FF731A400282704730
:10346000C1F308028280704701468888C0F30800D3
:103470007047818941F0010181817047028BD2B28E
:103480000283028B42EA012202837047028B02F41C
:103490007F420283028B0A430283704721B1828AF2
:1034A00042F02002828204E0828A4FF6DF731A40E3
:1034B0008282704721B1828A42F01002828204E047
:1034C000828A4FF6EF731A408282704721B1828A56
:1034D00042F00802828204E0828A4FF6F7731A40B3
:1034E0008282704721B1828942F40042828103E0E6
:1034F0008289C2F30E028281704721B1828A42F42E
:103500000062828204E0828A4FF2FF731A40828254
:103510007047828A4FF6FB731A408282828A0A437E
:103520008282704721B1828A42F00202828204E0E4
:10353000828A4FF6FD731A4082827047024600204D
:10354000B1F5007F00D100BF13880B400BB1012003
:1035500000E00020704701F40072B2F5007F00D156
:1035600000BFCA430280704770B5024600240023A2
:103570000025002040F66A16B14200D100BFC1F319
:10358000421501F01F03012606FA03F3012D02D1B3
:103590009689334006E0022D02D1168A334001E0BD
:1035A000968A33400C12012606FA04F41688344039
:1035B00013B10CB1012000E0002070BD10B5002255
:1035C000002340F66A14A14200D100BF0A12012470
:1035D0009440A3B2DC43048010BD000000380140D9
:1035E0000044004000480040004C004000500040B3
:1035F00010B50446FA48844208D101214015FFF76E
:10360000A9FD00216015FFF7A5FD17E0F5488442EC
:1036100008D101210015FFF79DFD00212015FFF7BE
:1036200099FD0BE0F048844208D10121C803FFF75F
:1036300091FD00214FF40040FFF78CFD10BD30B527
:103640000246002000235068E84C20400D790C68A9
:1036500044EA0524204350609068E54C2040D1E9BD
:1036600002542C434D7944EA450420439060D06ACB
:1036700020F470000C7C641EE4B2234340EA035043
:10368000D06230BD00210160017141718160C16073
:1036900001210174704721B1826842F00102826009
:1036A00003E0826822F001028260704721B18268E3
:1036B00042F48072826003E0826822F48072826049
:1036C000704710B50023CBB21AB144681C43446064
:1036D00002E044689C43446010BD816841F00801E9
:1036E00081607047014600208A6802F008020AB132
:1036F000012000E000207047816841F004018160F2
:103700007047014600208A6802F004020AB10120D5
:1037100000E00020704721B1826842F4A00282607C
:1037200003E0826822F4A002826070470146002014
:103730008A6802F480020AB1012000E0002070478C
:1037400010B50A4600210023416821F46041531E50
:1037500041EA4331416010BD21B1426842F4006248
:10376000426003E0426822F4006242607047F0B5B4
:1037700004460D4600200021092D11DDE068A5F169
:103780000A0606EB4607072606FA07F18843A5F165
:103790000A0606EB460603FA06F10843E0600CE071
:1037A000206905EB4507072606FA07F1884305EB74
:1037B000450603FA06F108432061072A0FDA606B19
:1037C000561E06EB86071F2606FA07F18843561E8B
:1037D00006EB860605FA06F10843606322E00D2A2F
:1037E0000FDA206BD61F06EB86071F2606FA07F1B5
:1037F0008843D61F06EB860605FA06F108432063C8
:1038000010E0E06AA2F10D0606EB86071F2606FA15
:1038100007F18843A2F10D0606EB860605FA06F1CC
:103820000843E062F0BD21B1826842F480128260F8
:1038300003E0826822F48012826070470146C86CFF
:1038400080B2704766484C300068704721B14268CA
:1038500042F48062426003E0426822F48062426087
:10386000704721B1426842F48052426003E04268EE
:1038700022F48052426070470A460021816821F498
:10388000E04111438160704721B1826842F40042F7
:10389000826003E0826822F400428260704721B1B6
:1038A000826842F40212826003E0826822F402120B
:1038B00082607047014600208A6802F400120AB153
:1038C000012000E000207047F0B5044615460020B6
:1038D00000220026092911DDE068A1F10A0707EBA3
:1038E000470C072707FA0CF29043A1F10A0707EBF0
:1038F000470703FA07F21043E0600CE0206901EB90
:10390000410C072707FA0CF2904301EB410703FA39
:1039100007F210432061A06BC0F30156EF1C06F1C3
:10392000010CA7EB0C0707EB870C1F2707FA0CF21B
:103930009043EF1C06F1010CA7EB0C0707EB870780
:1039400001FA07F21043A063F0BD10B50A4600214A
:103950000023816B21F44011531E41EA035181631E
:1039600010BD08B5002300930090009B0B4400930A
:10397000009B1A6008BD08B5024600200090009226
:1039800001F12800009B184400900098006880B264
:1039900008BD0A4600214168164B19401143416099
:1039A00070474162826270470A460021416821F0F7
:1039B0001F0111434160704740B10949083109684E
:1039C00041F40001064A0832116007E00449083159
:1039D000096821F40001024A0832116070470000B2
:1039E0000024014000280140003C0140FFFEF0FFA0
:1039F000FDF7F1FFFFFD3FFF0246002013680B407B
:103A00000BB1012000E000207047CA4302607047FC
:103A100070B502460020002300240B125568CEB278
:103A200005EA060415681D4015B10CB1012000E03F
:103A3000002070BD00220A12D343036070470000CB
:103A400010B50446FE48844208D10121C014FFF796
:103A500081FB0021E014FFF77DFBC4E0B4F1804F4F
:103A600008D101210846FFF782FB00210120FFF762
:103A70007EFBB8E0F348844208D101210220FFF721
:103A800076FB00210220FFF772FBACE0EE48844297
:103A900008D101210420FFF76AFB00210420FFF771
:103AA00066FBA0E0E948844208D101210820FFF725
:103AB0005EFB00210820FFF75AFB94E0E4488442B3
:103AC00008D101211020FFF752FB00211020FFF741
:103AD0004EFB88E0DF48844208D101212020FFF717
:103AE00046FB00212020FFF742FB7CE0DA488442BD
:103AF00008D101214014FFF72DFB00216014FFF7CE
:103B000029FB70E0D548844209D10121C804FFF7A0
:103B100021FB00214FF40020FFF71CFB63E0D0489D
:103B2000844209D101210805FFF714FB00214FF45D
:103B30008010FFF70FFB56E0CA48844209D10121EB
:103B40004805FFF707FB00214FF40010FFF702FBC9
:103B500049E0C548844208D101214020FFF707FB16
:103B600000214020FFF703FB3DE0C048844208D11C
:103B700001218020FFF7FBFA00218020FFF7F7FAF0
:103B800031E0BB48844208D101218015FFF7EFFAEC
:103B90000021A015FFF7EBFA25E0B648844209D1D1
:103BA00001210804FFF7D6FA00214FF48030FFF717
:103BB000D1FA18E0B048844209D101214804FFF746
:103BC000C9FA00214FF40030FFF7C4FA0BE0AB480C
:103BD000844208D101218804FFF7BCFA00214FF488
:103BE0008020FFF7B7FA10BD00220288944B98425C
:103BF0000ED0994B98420BD0B0F1804F08D0914B2A
:103C0000984205D0904B984202D0904B984204D1F4
:103C10004FF68F731A404B881A438D4B984207D04A
:103C20008C4B984204D04FF6FF431A40CB881A437E
:103C300002808B8883850B880385814B98420BD04B
:103C4000854B984208D08B4B984205D08A4B9842BE
:103C500002D08A4B984201D10B7A038601238382DA
:103C6000704770B5002400220023058C4FF6FE76C5
:103C700035400584028C8388048B4FF68F752C4069
:103C8000B51E2C400D882C43751E2A400D892A43F1
:103C90004D882A436A4DA8420BD06F4DA84208D0E8
:103CA000744DA84205D0744DA84202D0734DA8426D
:103CB00013D14FF6F7752A404D892A434FF6FB750D
:103CC0002A408D882A434FF6FF652B404FF6FF555B
:103CD0002B408D892B43CD892B4383800483CD8852
:103CE0008586028470BD70B5002400220023058CF7
:103CF0004FF6EF7635400584028C8388048B48F6B6
:103D0000FF752C404FF6FF452C400D884FF6FF768F
:103D100006EA05252C434FF6DF752A400D8906EA91
:103D200005152A434D8806EA05152A43444DA84245
:103D300002D0494DA8421DD14FF67F752A404D89CA
:103D40004FF6FF7606EA05152A434FF6BF752A405F
:103D50008D8806EA05152A434FF6FF352B404FF2B2
:103D6000FF752B408D8906EA85052B43CD8906EA30
:103D700085052B4383800483CD880587028470BD2D
:103D800070B5002400220023058C4FF6FF663540F5
:103D90000584028C8388848B4FF68F752C404FF6F8
:103DA000FC752C400D882C434FF6FF552A400D8999
:103DB0004FF6FF7606EA05252A434D8806EA0525D3
:103DC0002A431F4DA84202D0234DA8421DD14FF2D5
:103DD000FF752A404D894FF6FF7606EA05252A43EE
:103DE0004FF6FF352A408D8806EA05252A434EF610
:103DF000FF752B404DF6FF752B408D8906EA0515A2
:103E00002B43CD8906EA05152B4383808483CD8817
:103E10008587028470BD70B5002200230024058CC4
:103E20004EF6FF7635400584038C8488828B48F6F5
:103E3000FF752A404FF6FF452A400D8820E000001C
:103E4000002C01400004004000080040000C00402D
:103E5000001000400014004000340140004C0140BC
:103E6000005001400054014000180040001C004078
:103E70000020004000400140004401400048014053
:103E80004FF6FF7606EA05252A434DF6FF752B40CF
:103E90000D8906EA05352B434D8806EA05352B4387
:103EA000FA4DA84202D0FA4DA84208D14BF6FF7550
:103EB0002C408D894FF6FF7606EA85152C438480C9
:103EC0008283CD88A0F84050038470BD828B4FF26E
:103ED000FF331A408283828B4FF6FF7303EA01237C
:103EE0001A4382837047F0B50C4615460022002124
:103EF0000026078C4EF6FF7C07EA0C070784828BAE
:103F0000018C4FF6FF7707EA043640F6FF473A4048
:103F10004FF6FF7707EA05273A434FF6FF7707EAA0
:103F200003373A43D94FB8420ED0D94FB8420BD0DD
:103F3000B0F1804F08D0D74FB84205D0D64FB84225
:103F400002D0D64FB84206D14DF6FF77394046F43D
:103F50008057394305E047F6FF57394044F480570E
:103F6000394382830184F0BD828B4FF6F3731A408C
:103F70008283828B0A4382837047F0B50C461546D4
:103F8000002200210026078C4FF6FF6C07EA0C0781
:103F90000784828B018C4FF6FF7707EA04264FF6E1
:103FA0000C773A404FF6FF7707EA03172F433A435F
:103FB000B64FB8420ED0B64FB8420BD0B0F1804FDA
:103FC00008D0B44FB84205D0B34FB84202D0B34F77
:103FD000B84206D14FF6FF57394046F4807739434F
:103FE00005E04FF2FF57394044F48077394382832C
:103FF0000184F0BD028B4FF2FF331A400283028B23
:104000004FF6FF7303EA01231A4302837047F0B5AA
:104010000C461546002200210026078C4FF6EF7C47
:1040200007EA0C070784028B018C4FF6FF7707EA3B
:10403000041640F6FF473A404FF6FF7707EA03378A
:104040003A434FF6FF7707EA05273A438F4FB842C6
:104050000ED08F4FB8420BD0B0F1804F08D08D4FAB
:10406000B84205D08C4FB84202D08C4FB84206D12E
:104070004FF6DF77394046F01007394305E04FF639
:104080005F77394044F01007394302830184F0BD63
:10409000028B4FF6F3731A400283028B0A430283AA
:1040A0007047F0B50C46154600220021068C4FF6ED
:1040B000FE773E400684028B018C4FF60C76324030
:1040C0007E1C06EA03162E433243704EB0420ED0D9
:1040D0006F4EB0420BD0B0F1804F08D06D4EB04261
:1040E00005D06D4EB04202D06C4EB04206D14FF6B4
:1040F000FD76314044F00106314305E04FF6F57698
:10410000314044F00106314302830184F0BD70B5B3
:1041100005460C465D4885420ED05D4885420BD071
:10412000B5F1804F08D05B48854205D05A4885429A
:1041300002D05A48854200D100E000BF208850B923
:104140002389A28861882846FFF7ABFFE1882846CB
:10415000FFF79EFF25E0208804280AD12389A28842
:1041600061882846FFF753FFE1882846FFF742FFA2
:1041700017E0208808280AD12389A2886188284668
:10418000FFF7FBFEE1882846FFF7EEFE09E02389F2
:10419000A28861882846FFF7A6FEE1882846FFF737
:1041A00095FE70BD2DE9F04105460C46002601271D
:1041B000608808B9022600E00026A088012801D105
:1041C000022700E001272088A0B92389A2886188FE
:1041D0002846FFF766FFE1882846FFF759FF238945
:1041E0003A4631462846FFF712FFE1882846FFF796
:1041F00001FF13E02389A28861882846FFF707FFA3
:10420000E1882846FFF7F6FE23893A4631462846DC
:10421000FFF747FFE1882846FFF73AFFBDE8F08146
:104220000A884B881A438B881A43CB881A430B8918
:104230001A434B891A438B891A43A0F844207047CC
:104240004FF6FF71818000210180C18041800172A1
:1042500070470021018041808180C18001814181BE
:104260008181C181704700210180418001218180CD
:104270000021C1800181704700210180418081803F
:10428000C18001814181818170470000002C014083
:10429000003401400004004000080040000C0040D1
:1042A00021B1028842F00102028004E002884FF648
:1042B000FE731A400280704731B1B0F8442042F4D6
:1042C0000042A0F8442005E0B0F84420C2F30E02FA
:1042D000A0F8442070471AB183890B43838102E020
:1042E00083898B43838170478182704741EA02034F
:1042F000A0F8483070471AB183890B43838102E0EC
:1043000083898B438381704701894FF6F87211408E
:10431000018170470A46002101894FF68F731940C9
:1043200011430181704730B504460D4629462046A9
:10433000FFF7F0FF208940F00700208130BD2DE914
:10434000F04104460D4616461F46602D06D13B46F9
:10435000012231462046FFF75AFE05E03B46012286
:1043600031462046FFF79DFE29462046FFF7D2FF43
:10437000208940F007002081BDE8F08130B50C466F
:1043800000210189C9B24FF6FF7505EA03251543DF
:1043900025432943018130BD2DE9F04105460E46F4
:1043A00017469846002443463A4631462846FFF7CA
:1043B000E5FF2C894FF6F870044044F007044FF6EF
:1043C0008F70044044F070042C81BDE8F081F0B59A
:1043D00004460D4616461F463B46324629462046B1
:1043E000FFF7CCFF208940F480402081F0BD01859B
:1043F000828270470A46002101884FF68F73194068
:10440000114301807047F0B50C4615461E46002149
:10441000002200230189028B038C4FF6F877394084
:1044200021434FF6FC473A4040F201173A434FF61A
:10443000DD773B404FF6FF7707EA06172F433B43F4
:10444000018102830384F0BD0A460021018B4FF6EF
:104450008F7319401143018370470A460021018B75
:1044600048F6FF7319404FF6FF7303EA022319431E
:10447000018370470A460021818B4FF68F731940E4
:104480001143818370470A460021818B48F6FF73F0
:1044900019404FF6FF7303EA0223194381837047E3
:1044A00021B1028842F08002028004E002884FF6C7
:1044B0007F731A400280704721B1828842F0040263
:1044C000828004E082884FF6FB731A408280704736
:1044D00021B1828842F00802828004E082884FF68F
:1044E000F7731A408280704721B1828842F001023E
:1044F000828004E082884FF6FE731A408280704703
:104500000A460021018B4FF6F773194011430183CE
:1045100070470A460021018B4FF2FF7319404FF696
:10452000FF7303EA02231943018370470A460021FF
:10453000818B4FF6F77319401143818370470A4608
:104540000021818B4FF2FF7319404FF6FF7303EA8E
:1045500002231943818370470A460021018B4FF6DD
:10456000FB7319401143018370470A460021018BF8
:104570004FF6FF3319404FF6FF7303EA0223194346
:10458000018370470A460021818B4FF6FB73194067
:104590001143818370470A460021818B4FF6FF3318
:1045A00019404FF6FF7303EA0223194381837047D2
:1045B0000A460021018B4FF67F7319401143018396
:1045C00070470A460021018BC1F30E014FF6FF73BD
:1045D00003EA02231943018370470A460021818BB5
:1045E0004FF67F7319401143818370470A460021BB
:1045F000818BC1F30E014FF6FF7303EA02231943C7
:10460000818370470A460021018C4FF6FD731940E3
:104610001143018470470A460021018C4FF6F7735D
:1046200019401143018470470A460021018C4FF65E
:10463000DF7319404FF6FF7303EA02131943018435
:1046400070470A460021018C4FF67F7319404FF6E0
:10465000FF7303EA02131943018470470A460021DD
:10466000018C4FF6FF5319404FF6FF7303EA022304
:104670001943018470470A460021018C4FF2FF73F1
:1046800019404FF6FF7303EA022319430184704770
:104690000A460021018C4DF6FF7319404FF6FF7357
:1046A00003EA023319430184704730B50023012423
:1046B0008C40A3B2048C9C430484048C02FA01F560
:1046C000ADB22C43048430BD30B5002304248C40AB
:1046D000A3B2048C9C430484048C02FA01F5ADB2AD
:1046E0002C43048430BD70B50346002000241846D6
:1046F000183001258D40ACB21D8CA5431D8409B135
:10470000082909D100EB6100056825F070050560F6
:104710000568154305600EE00D1FC5F34E052844DE
:10472000056825F4E045056005684FF6FF7606EA62
:1047300002263543056070BD21B1028842F00202B5
:10474000028004E002884FF6FD731A400280704731
:1047500021B1028842F00402028004E002884FF690
:10476000FB731A400280704721B1828842F08002B8
:10477000828004E082884FF67F731A4082807047FF
:1047800002884FF6F7731A40028002880A430280BB
:10479000704782884FF68F731A40828082880A435E
:1047A0008280704702894FF6F8731A4002810289AD
:1047B0000A430281704702894FF67F731A400281D3
:1047C00002890A430281704781847047818570475E
:1047D000818670470187704781877047A0F8401035
:1047E000704702884FF6FF431A40028002880A434E
:1047F000028070470146888E70470146088F7047D7
:104800000146888F70470146B1F840007047014665
:10481000888C70470146088D704702460020138A35
:104820000B400BB1012000E000207047CA43028218
:10483000704730B50246002000230024158A05EA9F
:104840000103958905EA010413B10CB1012000E0D0
:10485000002030BDCA4302827047000029B1504A8F
:10486000128802434E4B1A8004E04D4A128882435C
:104870004B4B1A8070474A48001D008840F01000DA
:104880004749091D088070474548001D00884FF6BC
:10489000EF7108404249091D0880704700214048D7
:1048A0001C300188001F008841EA0040704700B5B5
:1048B0000246FFF7E0FF100C394918310880091D46
:1048C0000A80FFF7E1FF00BD00B50246FFF7D3FF06
:1048D000C2F30340324908310880091D0A80FFF7FE
:1048E000D3FF00BD00B50246FFF7C5FF100C2C49F1
:1048F00020310880091D0A80FFF7C6FF00BD002097
:104900002749103109880907080B254914310988FE
:104910000843704700BF2248001D008800F02000B7
:104920000028F8D070471E48001D00884FF6F77128
:1049300008401B49091D088000BF1948001D008858
:1049400000F008000028F8D0704701460020144A03
:10495000121D12880A400AB1012000E000207047B1
:104960000F49091D098881430D4A121D11807047A6
:10497000014600200A4A121D12880A40D0B2084A95
:1049800012880A4012B108B1012000E000207047EF
:104990000349091D09888143014A121D118070478E
:1049A0000028004010B501210807FEF7E0FB0021B8
:1049B0004FF08050FEF7DBFB10BD2A4908627047BC
:1049C00028490861704701460020274A106820F0F6
:1049D000E0000843106070472249A031086070472A
:1049E00010B502460020204B186820F00300104349
:1049F00018601E4B1B6843F004031C4C2360012904
:104A000001D130BF00E020BF184B1B6823F0040326
:104A1000164C236010BD1448006840F00400124991
:104A200008600846006840F0020008600F4800680F
:104A300040F004000D49086000BF00BF30BF704760
:104A400001460020084A52680A400AB1012000E0ED
:104A5000002070470449096841EA8001024A116058
:104A60007047000000000E420070004010ED00E0B2
:104A700010B50120FEF788FB0020FEF785FB10BD76
:104A80002A49086070472949091F0860704727496B
:104A900084310860704701460020254A10884FF68F
:104AA0007F4210400843224A108070470146002090
:104AB0001F4A10884FF68072104008431C4A10802D
:104AC000704708B500220092194A2C3A0092009AC9
:104AD00002440092009A116008BD08B5014600200A
:104AE000009013482C3800900098084400900098DB
:104AF000008808BD0D489C300068C0B270470C4863
:104B00000830008840F001000949083108807047EA
:104B10000648A0300068C0B27047054808300088D9
:104B200040F00200024908310880704704860D42B7
:104B30002C6C004001460020FE4A106800F038004E
:104B4000084310607047FB49096821F00801F94AE1
:104B5000116011460968014311607047F549096801
:104B600021F01001F34A11601146096801431160F8
:104B70007047F148EF494860F04848607047EE4898
:104B8000EC494860ED4848607047EA48006940F0E9
:104B90008000E84908617047E648006940F08000FD
:104BA000E449086170470420E249C96801F0010145
:104BB00009B101200EE0DF49C96801F0040109B123
:104BC000022007E0DB49C96801F0100109B10320A8
:104BD00000E00420704700B502460423FFF7E3FF1E
:104BE000034603E0FFF7DFFF0346521E012B01D10E
:104BF000002AF7D102B90523184600BD30B5044696
:104C000004254FF43020FFF7E6FF0546042D17D1A9
:104C1000C848006940F00200C6490861084644617E
:104C2000006940F0400008614FF43020FFF7D3FFE7
:104C30000546C048006941F6FD710840BD4908615C
:104C4000284630BD10B504244FF43020FFF7C3FFD1
:104C50000446042C16D1B748006940F00400B54959
:104C600008610846006940F0400008614FF43020B8
:104C7000FFF7B1FF0446AF48006941F6FB710840F9
:104C8000AC490861204610BD00B502460423FFF779
:104C90008AFF034603E0FFF786FF0346521E012BFF
:104CA00001D1002AF7D102B90523184600BD10B57D
:104CB00004244FF43020FFF7E7FF0446042C16D1FC
:104CC0009C48006940F004009A4908610846006960
:104CD00040F0400008614FF43020FFF7D5FF044654
:104CE0009448006941F6FB710840924908612046EA
:104CF00010BD00208F49C96901F0020109B10120EE
:104D000000E00020704730B5A5250424FFF7F1FF2F
:104D100000B100254FF43020FFF75DFF0446042C5E
:104D20003AD185488349886084488860084600698C
:104D300040F0200008610846006940F0400008612A
:104D40004FF43020FFF747FF0446042C1BD179486D
:104D5000006941F6DF71084076490861084600693C
:104D600040F01000086176480580E002FFF733FF4D
:104D70000446052C10D06F48006941F6EF710840D9
:104D80006C49086108E0052C06D06A48006941F6C4
:104D9000EF71084067490861204630BD78B5064686
:104DA0000C46042500200090E802FFF714FF05469A
:104DB000042D24D15F48006940F001005D4908617D
:104DC0003480E802FFF707FF0546042D10D1B01C20
:104DD0000090200C00990880E802FFF7FCFE0546D1
:104DE0005448006941F6FE7108405249086106E0E6
:104DF0005048006941F6FE7108404E490861284656
:104E000078BD70B504460D460426F002FFF7E3FEB8
:104E10000646042E11D14748006940F0010045497B
:104E200008612580F002FFF7D6FE0646414800697A
:104E300041F6FE7108403F490861304670BD70B5CB
:104E400005460E460424E002FFF7C5FE0446042C86
:104E500017D1394837498860384888600846006962
:104E600040F0100008612E80E002FFF7B4FE044617
:104E7000052C06D02F48006941F6EF7108402D49F6
:104E80000861204670BD2DE9F04304464FF6FF76D9
:104E90003746B046B1460425E443E6B2C4F30727DB
:104EA000C4F307484FEA1469E802FFF794FE054689
:104EB000042D49D120481F49886020488860084651
:104EC000006940F010000861FF2E06D01C48083031
:104ED0000680E802FFF77FFE0546042D08D1FF2F6C
:104EE00006D017480A300780E802FFF774FE05462F
:104EF000042D0AD1B8F1FF0F07D011480C30A0F8EB
:104F00000080E802FFF767FE0546042D0AD1B9F1DB
:104F1000FF0F07D00A480E30A0F80090E802FFF714
:104F20005AFE0546052D0FD00248006941F6EF7183
:104F3000084007E00020024023016745AB89EFCD20
:104F400000F8FF1F664908612846BDE8F08330B5C8
:104F5000054604244FF43020FFF73DFE0446042CA0
:104F600041D160485E4988605F48886008460069B2
:104F700040F0200008610846006940F040000861E8
:104F80004FF43020FFF727FE0446042C22D154486A
:104F9000006941F6DF71084051490861084600691F
:104FA00040F0100008611DB100205049088002E067
:104FB000A5204E4908804FF43020FFF70CFE044630
:104FC000052C10D04648006941F6EF71084044496D
:104FD000086108E0052C06D04148006941F6DF7100
:104FE00008403F490861204630BDF0B505460E46F1
:104FF000174604243B483A4988603B488860E002F1
:10500000FFF7E9FD0446042C19D13548006940F04A
:1050100010003349086147F0F80030432843334912
:10502000891C0880E002FFF7D6FD0446052C06D057
:105030002B48006941F6EF71084029490861204674
:10504000F0BD2748C069800870472548006A70474E
:1050500000202349096801F0200109B1012000E086
:105060000020704729B11E4A126902431C4B1A6185
:1050700004E01B4A12698243194B1A6170470146CA
:105080000020012908D1164AD26902F001020AB1B2
:10509000012008E0002006E0114AD2680A400AB167
:1050A000012000E0002070470D49C86070470420CF
:1050B0000B49C96801F0010109B101200EE008495E
:1050C000C96801F0040109B1022007E00449C96878
:1050D00001F0100109B1032000E004207047000036
:1050E0000020024023016745AB89EFCD00F8FF1F88
:1050F000002044490860091D0860091D0860091D59
:10510000086041483F4914310860704700213D491B
:105110008279002A3AD00A46126803689A430B46FD
:105120001A600A1D126803689A430B1D1A600279FF
:1051300011440A6803681A430A60324A0832126846
:1051400003689A432F4B08331A601A1D12680368CC
:105150009A432C4B0C331A604279102A0ED11A1F35
:10516000126803681A43274B08331A601A1D126825
:1051700003681A43234B0C331A600DE0214942792E
:1051800011440A6803681A430A6005E00279114471
:105190000A6803689A430A60704700210160017140
:1051A0000C21417100218171704716491031096845
:1051B0000143144A10321160704701460020114A21
:1051C000143212680A400AB1012000E00020704742
:1051D0000C49143108607047014600200022094B39
:1051E0001B6803EA0102074B14331B680B4013B121
:1051F0000AB1012000E00020704702491431086024
:105200007047000000040140FFFF0F0030B480EA47
:10521000010202F0004530F0004221F0004013D0BE
:1052200090B1C30DD40DC2F31601C0F31600E41AF9
:1052300041F4000140F400027D34914201D3641C2A
:1052400000E04900002C02DA30BC002070474FF427
:1052500000000023914201D3891A034340084FEA1A
:105260004101F7D151B1914202D14FF0004105E027
:1052700002D24FF0010101E06FF0010103EBC450D5
:10528000284430BC00F004B92DE9FE4F81EA030444
:1052900004F0004421F0004100944FF0000B23F093
:1052A000004350EA01045ED052EA03045BD0C3F32A
:1052B0000A54C1F30A552C44A4F2F3340194A0FB20
:1052C0000254C1F3130141F48011C3F3130343F4F7
:1052D000801301FB024400FB034E840A970A44EA50
:1052E000815447EA8357A4FB076802958D0A05FBA2
:1052F00007854FEA932C04FB0C542705029D4FEAC7
:10530000065847EA1637B5EB08056EEB070C870E13
:10531000920E47EA811742EA8312A7FB0201B6EB1D
:105320000B0164EB00042B0D43EA0C335E1844EBD5
:105330001C50DA465146E7FB0201C5F313044FEA5D
:105340000B3343EA14534FEA0432019C43EA060349
:10535000A4F10C040294009CCDE900B400F0DEF846
:1053600003B0BDE8F08F00200146F9E7C10F80EAE5
:10537000E0700844CA079623002100F092B870B587
:10538000C1F30A5201F000450024C1F3130140F2B9
:10539000FF3341F480119A4201DA002070BD40F2DF
:1053A00033439A42A2F2334203DC524200F060F8E7
:1053B00000E090402C43F1D0404270BD00F000422C
:1053C00030F000400AD0C10D01F56071C0F3160045
:1053D00042EA0151C20840071143704700200146CC
:1053E000704730B50B46014600202022012409E019
:1053F00021FA02F59D4205D303FA02F5491B04FA8E
:1054000002F52844151EA2F10102F1DC30BD2DE9A0
:10541000F05F0546002092469B4688460646814638
:1054200040241BE0284641464746224600F020F82B
:1054300053465A46C01A914110D311461846224687
:1054400000F012FA2D1A67EB01084F4622460120A0
:10545000002100F009FA17EB00094E41201EA4F1CB
:105460000104DFDC484631462A464346BDE8F09F4A
:10547000202A04DB203A21FA02F00021704721FAA9
:1054800002F3D040C2F12002914008431946704710
:105490000029A8BF7047401C490008BF20F0010048
:1054A000704710B4B0FA80FC00FA0CF050EA010426
:1054B00004BF10BC704749B1CCF1200421FA04F4B8
:1054C00011FA0CF118BF012121430843A3EB0C0191
:1054D000CB1D4FEA00614FEA102042BF002010BCF4
:1054E000704700EBC35010440029A4BF10BC7047A4
:1054F000401C490008BF20F0010010BC704710B5E7
:10550000141E73F1000408DA401C41F100019218E6
:105510005B411A4301D120F0010010BD2DE9F04D8F
:1055200092469B4611B1B1FA81F202E0B0FA80F2E4
:105530002032904600F098F904460F4640EA0A00EF
:1055400041EA0B0153465A46084313D0114653EA29
:10555000010019D0C8F140025046FFF789FF054607
:105560000E4650465946424600F07EF9084305D0A3
:10557000012004E020463946BDE8F08D00200543B7
:1055800046EAE0762C4337430A986305E40AA0EB29
:1055900008000022FD0A44EA47540A3002D50020E0
:1055A0000146E9E7010510196941DDE908450019DF
:1055B0006941BDE8F04DA2E72DE9FE4F804681EA42
:1055C0000300C00F0C46009021F0004123F000457D
:1055D000B8EB0200A94105D24046214690461C4640
:1055E0000B46024623F00040104347D0270DC7F377
:1055F0000A00C3F30A510290401A019040286BDA66
:10560000C3F3130040F4801B0098924620B100239E
:10561000D2EB030A63EB0B0B01985946C0F1400231
:10562000504600F021F906460D4650465946019A6B
:1056300000F029F910EB08006141002487EA1152BB
:1056400084EAE7731A4340D0009A62B3019A012AB0
:105650004FEA075215DC001B61EB02014FF00042DC
:1056600002EA0752CDE90042001C41F580113246A2
:105670002B46FFF753FF03B0BDE8F08F40462146AD
:10568000F9E7001B61EB0201001C41F580130018D3
:105690005B412018A2F5001747EB030140EAD570E3
:1056A000B6196D4111E06D084FEA360645EAC0753E
:1056B0004FEA0752001B61EB0201001C41F580110B
:1056C00049084FEA30000019514132462B4603B0D9
:1056D000BDE8F04FFFF713BF009801224000002300
:1056E000D0EB020263EBE073009821464FEAE074CE
:1056F000B8EB000061EB0401E9E783F000435BE7EE
:1057000081F0004158E72DE9F04D81EA030404F0EF
:10571000004B21F0004514464FF0000A23F00041F1
:1057200050EA050220D054EA01021DD0C5F30A5701
:105730000246C5F31303C1F31300C1F30A5640F444
:10574000801543F48013A7EB0608101BD64608F219
:10575000FD3873EB050002D308F1010801E092184F
:105760005B41B8F1000F03DA00200146BDE8F08D7F
:1057700000204FF48011064684460EE0171B73EBA1
:10578000050705D3121B63EB050306434CEA010C26
:1057900049084FEA300092185B4150EA0107EDD109
:1057A00052EA030012D082EA040083EA05010843AA
:1057B00005D0101BAB4106D20122002306E00022D7
:1057C0004FF0004302E06FF0010253101AEB0600A5
:1057D0004CEB085110EB0A0041EB0B01BDE8F04D1A
:1057E000FFF78DBEC1F30A52C1F3130140F2FF333C
:1057F00041F480119A4202DA00200146704740F2DB
:1058000033439A42A2F2334202DC5242FFF730BEE7
:1058100000F02AB830B5041E71F1000404DB4FF02B
:105820000044404264EB0101141E73F1000405DBE7
:105830001C464FF00043524263EB0403994208BFF9
:10584000904230BD064C074D06E0E06840F0010391
:1058500094E8070098471034AC42F6D3FAF74AFCB4
:105860003C6A00085C6A0008202A04DB203A00FA3F
:1058700002F1002070479140C2F1200320FA03F3A7
:10588000194390407047202A06DBCB17203A41FA93
:1058900002F043EAE07306E041FA02F3D040C2F1BD
:1058A0002002914008431946704770B58C1810F8D3
:1058B000015B15F0070301D110F8013B2A1106D155
:1058C00010F8012B03E010F8016B01F8016B5B1E6F
:1058D000F9D12B0705D40023521E0DD401F8013B4A
:1058E000FAE710F8013BCB1A921C03E013F8015BB6
:1058F00001F8015B521EF9D5A142D8D3002070BD3A
:105900000FB4054B10B503A9044A029800F0EEF855
:1059100010BC5DF814FB00000B290008A40800204F
:105920000FB4084B10B504A902AA039800F0DEF8E2
:10593000044602A9002000F05CFC204610BC5DF883
:1059400014FB0000F361000802E008C8121F08C140
:10595000002AFAD170477047002001E001C1121FF0
:10596000002AFBD1704700002DE9FF5F82B00021C3
:10597000DDE90430020DDDF840B0034318D044F6F1
:105980001050A2F2FF3242431514119801281FD083
:10599000A5EB0B00401C5FEA000A4FF000064E4FDB
:1059A000DFF83891B046504615D5CAF1000413E02F
:1059B000119801244AA3012801D16FEA0B01029832
:1059C000119AC0E90031C0E9024206B0BDE8F09F7B
:1059D000CBF10000DFE704460021404A491842EBC2
:1059E0000450CDE9001012E0E00707D032463B46F4
:1059F00040464946FFF748FC8046894632463B46CA
:105A000010461946FFF740FC06460F466410002C6E
:105A1000EAD1DDE90401DDE90023BAF1000F06DA7D
:105A2000FFF732FC42464B46FFF72EFC05E0FFF73E
:105A30006AFE42464B46FFF766FE04460E460022CB
:105A4000284BFFF7E7FE03D84FF0FF30014607E091
:105A50000022254B20463146FFF7AEFDFFF7C2FE80
:105A6000102409E0002C0ADB0A220023FFF7CFFCF8
:105A7000039B30321A55641E50EA0102F2D1641CB5
:105A8000039AC4F111031444119A012A03D001228C
:105A900008430DD10AE0084304D000204FF0110B59
:105AA000119072E7A3EB0B056D1E0DE05B4504DD65
:105AB0004FF0000205F1010504E003DA4FF00002A7
:105AC000A5F10105002AECD002981199C0E9023134
:105AD000C0E9004579E70000000014400000F03FF5
